{
  "transactions": [
    {
      "hash": "0x2c07c2d638d9cef6193b15586c0cd2df089b218249e0f5651ee87073147162ac",
      "transactionType": "CALL",
      "contractName": null,
      "contractAddress": "0x1c66bdc08346ae6b3c98d700b94d391c7b333a1d",
      "function": "increaseOracleLength(uint16)",
      "arguments": [
        "4"
      ],
      "transaction": {
        "from": "0x4a3723b6e427ecbd90f2848d6df9381a676a02b9",
        "to": "0x1c66bdc08346ae6b3c98d700b94d391c7b333a1d",
        "gas": "0x2be6a",
        "value": "0x0",
        "input": "0xc7bd65860000000000000000000000000000000000000000000000000000000000000004",
        "nonce": "0xec",
        "chainId": "0xdede"
      },
      "additionalContracts": [],
      "isFixedGasLimit": false
    },
    {
      "hash": "0x0a9e9ccbf55efac8cf331f0065d30c54e8bf63df51d5c92483266f1b12cbd0a3",
      "transactionType": "CALL",
      "contractName": null,
      "contractAddress": "0xe640b1ad57fdadf8aa60d715a455b40eb374d90b",
      "function": "setPairWhitelist(address[],bool)",
      "arguments": [
        "[0x5A2251254224Eb5eA9b459c6922C887e3E4054F7, 0x1C66bdc08346AE6B3c98d700B94d391c7B333a1d]",
        "true"
      ],
      "transaction": {
        "from": "0x4a3723b6e427ecbd90f2848d6df9381a676a02b9",
        "to": "0xe640b1ad57fdadf8aa60d715a455b40eb374d90b",
        "gas": "0x1b028",
        "value": "0x0",
        "input": "0x05d337410000000000000000000000000000000000000000000000000000000000000040000000000000000000000000000000000000000000000000000000000000000100000000000000000000000000000000000000000000000000000000000000020000000000000000000000005a2251254224eb5ea9b459c6922c887e3e4054f70000000000000000000000001c66bdc08346ae6b3c98d700b94d391c7b333a1d",
        "nonce": "0xed",
        "chainId": "0xdede"
      },
      "additionalContracts": [],
      "isFixedGasLimit": false
    }
  ],
  "receipts": [
    {
      "status": "0x1",
      "cumulativeGasUsed": "0x2476f",
      "logs": [
        {
          "address": "0x1c66bdc08346ae6b3c98d700b94d391c7b333a1d",
          "topics": [
            "0xc975541e72d695746a43ba65745d79963a23082637c8f4609354d9bcf70194d6",
            "0x0000000000000000000000004a3723b6e427ecbd90f2848d6df9381a676a02b9"
          ],
          "data": "0x0000000000000000000000000000000000000000000000000000000000000004",
          "blockHash": "0x44c45bd1e490032008ddf5cd1cd473fe423da651947b655edee197d79dff426f",
          "blockNumber": "0x10a06b6",
          "transactionHash": "0x2c07c2d638d9cef6193b15586c0cd2df089b218249e0f5651ee87073147162ac",
          "transactionIndex": "0x1",
          "logIndex": "0x0",
          "removed": false
        }
      ],
      "logsBloom": "0x00000000000000002000000000000000000000000000000000000100000000000000000000000000000000000000000000000000000020000000000000000000000000000000000000000000000000000000000000000000000000000000000000000000000000000000000000000000000000000000000000000000000000000000000000000000000000000000000000000000000000000000000000000000000000000000000000000000000000000000000000000000000000000000800000000000100000000000000000000000000000000000000001000000000000000000000000000000001000400000000000000000000100000000000000000000",
      "type": "0x0",
      "transactionHash": "0x2c07c2d638d9cef6193b15586c0cd2df089b218249e0f5651ee87073147162ac",
      "transactionIndex": "0x1",
      "blockHash": "0x44c45bd1e490032008ddf5cd1cd473fe423da651947b655edee197d79dff426f",
      "blockNumber": "0x10a06b6",
      "gasUsed": "0x1f567",
      "effectiveGasPrice": "0x4190ab00",
      "from": "0x4a3723b6e427ecbd90f2848d6df9381a676a02b9",
      "to": "0x1c66bdc08346ae6b3c98d700b94d391c7b333a1d",
      "contractAddress": null
    },
    {
      "status": "0x1",
      "cumulativeGasUsed": "0x38c3c",
      "logs": [
        {
          "address": "0xe640b1ad57fdadf8aa60d715a455b40eb374d90b",
          "topics": [
            "0x0c948485f94e8de02a7b481333033de57f6a09532dd3e1c119a7f1a572a6643e"
          ],
          "data": "0x0000000000000000000000000000000000000000000000000000000000000040000000000000000000000000000000000000000000000000000000000000000100000000000000000000000000000000000000000000000000000000000000020000000000000000000000005a2251254224eb5ea9b459c6922c887e3e4054f70000000000000000000000001c66bdc08346ae6b3c98d700b94d391c7b333a1d",
          "blockHash": "0x44c45bd1e490032008ddf5cd1cd473fe423da651947b655edee197d79dff426f",
          "blockNumber": "0x10a06b6",
          "transactionHash": "0x0a9e9ccbf55efac8cf331f0065d30c54e8bf63df51d5c92483266f1b12cbd0a3",
          "transactionIndex": "0x2",
          "logIndex": "0x1",
          "removed": false
        }
      ],
      "logsBloom": "0x00000000000000000000000000000000000000000000000000000000000000000000000000000000000000000000000001000000000000000000000000000000000000000000000000000000000000000000000000000000000000000000000000000000000000000000000000000000080400000000000000000000000000000000000000000000000000000000000000000000000000000000000000000000000000000000000000000000000000000000000000000000000000000000000000000000000000000002000000000000000020000000000000000000000001000000000000000000000000000000000000000000000000000000000000000000",
      "type": "0x0",
      "transactionHash": "0x0a9e9ccbf55efac8cf331f0065d30c54e8bf63df51d5c92483266f1b12cbd0a3",
      "transactionIndex": "0x2",
      "blockHash": "0x44c45bd1e490032008ddf5cd1cd473fe423da651947b655edee197d79dff426f",
      "blockNumber": "0x10a06b6",
      "gasUsed": "0x144cd",
      "effectiveGasPrice": "0x4190ab00",
      "from": "0x4a3723b6e427ecbd90f2848d6df9381a676a02b9",
      "to": "0xe640b1ad57fdadf8aa60d715a455b40eb374d90b",
      "contractAddress": null
    }
  ],
  "libraries": [],
  "pending": [],
  "returns": {},
  "timestamp": 1738521466,
  "chain": 57054,
  "commit": "6605aac"
}