{
  "transactions": [
    {
      "hash": "0xc65f949bcc15ee6ace0d3f3e6ed9f9b5fed2cc3a0748a6a9b0ade69b30478a17",
      "transactionType": "CREATE",
      "contractName": "OracleLensAggregator",
      "contractAddress": "0x43A08d9C7A30645b41fc48C8E81c7AD3de5587Bd",
      "function": null,
      "arguments": [
        "0x2D52467D074B3590760831af816046471a81bf3a",
        "0x4200000000000000000000000000000000000006"
      ],
      "transaction": {
        "type": "0x02",
        "from": "0xded212b8bab662b98f49e757cbb409bb7808dc10",
        "gas": "0x7d471",
        "value": "0x0",
        "data": "0x60c060405234801561001057600080fd5b506040516106d33803806106d383398101604081905261002f916100bb565b6100383361004f565b6001600160a01b039182166080521660a0526100ee565b600080546001600160a01b038381166001600160a01b0319831681178455604051919092169283917f8be0079c531659141344cd1fd0a4f28419497f9722a3daafe3b4186f6b6457e09190a35050565b80516001600160a01b03811681146100b657600080fd5b919050565b600080604083850312156100ce57600080fd5b6100d78361009f565b91506100e56020840161009f565b90509250929050565b60805160a0516105b3610120600039600081816101ff01526103fc01526000818160d3015261042901526105b36000f3fe608060405234801561001057600080fd5b50600436106100c95760003560e01c80638da5cb5b11610081578063f7a308061161005b578063f7a30806146101e7578063fc0c546a146101fa578063feaf968c1461022157600080fd5b80638da5cb5b146101795780639a6fc8f51461018a578063f2fde38b146101d457600080fd5b806354fd4d50116100b257806354fd4d5014610121578063715018a6146101305780637284e4161461013a57600080fd5b8063112666b7146100ce578063313ce56714610112575b600080fd5b6100f57f000000000000000000000000000000000000000000000000000000000000000081565b6040516001600160a01b0390911681526020015b60405180910390f35b60405160128152602001610109565b60405160018152602001610109565b610138610229565b005b604080518082018252601481527f4f7261636c654c656e7341676772656761746f7200000000000000000000000060208201529051610109919061049a565b6000546001600160a01b03166100f5565b61019d6101983660046104ef565b61023d565b6040805169ffffffffffffffffffff968716815260208101959095528401929092526060830152909116608082015260a001610109565b6101386101e2366004610522565b610262565b6101386101f536600461054b565b6102f7565b6100f57f000000000000000000000000000000000000000000000000000000000000000081565b61019d6102ff565b610231610323565b61023b600061037d565b565b60008060008060008061024e6103e5565b909790965060009550429450859350915050565b61026a610323565b6001600160a01b0381166102eb5760405162461bcd60e51b815260206004820152602660248201527f4f776e61626c653a206e6577206f776e657220697320746865207a65726f206160448201527f646472657373000000000000000000000000000000000000000000000000000060648201526084015b60405180910390fd5b6102f48161037d565b50565b6102f4610323565b6000806000806000806103106103e5565b9096909550600094504293508492509050565b6000546001600160a01b0316331461023b5760405162461bcd60e51b815260206004820181905260248201527f4f776e61626c653a2063616c6c6572206973206e6f7420746865206f776e657260448201526064016102e2565b600080546001600160a01b038381167fffffffffffffffffffffffff0000000000000000000000000000000000000000831681178455604051919092169283917f8be0079c531659141344cd1fd0a4f28419497f9722a3daafe3b4186f6b6457e09190a35050565b60405163ad8dc75760e01b81526001600160a01b037f00000000000000000000000000000000000000000000000000000000000000008116600483015260009182917f0000000000000000000000000000000000000000000000000000000000000000169063ad8dc75790602401602060405180830381865afa158015610470573d6000803e3d6000fd5b505050506040513d601f19601f820116820180604052508101906104949190610564565b92915050565b600060208083528351808285015260005b818110156104c7578581018301518582016040015282016104ab565b818111156104d9576000604083870101525b50601f01601f1916929092016040019392505050565b60006020828403121561050157600080fd5b813569ffffffffffffffffffff8116811461051b57600080fd5b9392505050565b60006020828403121561053457600080fd5b81356001600160a01b038116811461051b57600080fd5b60006020828403121561055d57600080fd5b5035919050565b60006020828403121561057657600080fd5b505191905056fea2646970667358221220b7dcfc92e230f401fdb83fbec3fd0a54fb4d8cc2de9dbeddecaab10970c9832464736f6c634300080a00330000000000000000000000002d52467d074b3590760831af816046471a81bf3a0000000000000000000000004200000000000000000000000000000000000006",
        "nonce": "0x3a",
        "accessList": []
      },
      "additionalContracts": [],
      "isFixedGasLimit": false
    },
    {
      "hash": "0x5daa6df8ff09768a9b8a35b54c8286577befe12bd310bad3975714d2cb05988b",
      "transactionType": "CREATE",
      "contractName": "OracleLensAggregator",
      "contractAddress": "0x2443e5165DB8a8A7cff5d66Cb9861806332aCE4D",
      "function": null,
      "arguments": [
        "0x2D52467D074B3590760831af816046471a81bf3a",
        "0x833589fCD6eDb6E08f4c7C32D4f71b54bdA02913"
      ],
      "transaction": {
        "type": "0x02",
        "from": "0xded212b8bab662b98f49e757cbb409bb7808dc10",
        "gas": "0x7d58a",
        "value": "0x0",
        "data": "0x60c060405234801561001057600080fd5b506040516106d33803806106d383398101604081905261002f916100bb565b6100383361004f565b6001600160a01b039182166080521660a0526100ee565b600080546001600160a01b038381166001600160a01b0319831681178455604051919092169283917f8be0079c531659141344cd1fd0a4f28419497f9722a3daafe3b4186f6b6457e09190a35050565b80516001600160a01b03811681146100b657600080fd5b919050565b600080604083850312156100ce57600080fd5b6100d78361009f565b91506100e56020840161009f565b90509250929050565b60805160a0516105b3610120600039600081816101ff01526103fc01526000818160d3015261042901526105b36000f3fe608060405234801561001057600080fd5b50600436106100c95760003560e01c80638da5cb5b11610081578063f7a308061161005b578063f7a30806146101e7578063fc0c546a146101fa578063feaf968c1461022157600080fd5b80638da5cb5b146101795780639a6fc8f51461018a578063f2fde38b146101d457600080fd5b806354fd4d50116100b257806354fd4d5014610121578063715018a6146101305780637284e4161461013a57600080fd5b8063112666b7146100ce578063313ce56714610112575b600080fd5b6100f57f000000000000000000000000000000000000000000000000000000000000000081565b6040516001600160a01b0390911681526020015b60405180910390f35b60405160128152602001610109565b60405160018152602001610109565b610138610229565b005b604080518082018252601481527f4f7261636c654c656e7341676772656761746f7200000000000000000000000060208201529051610109919061049a565b6000546001600160a01b03166100f5565b61019d6101983660046104ef565b61023d565b6040805169ffffffffffffffffffff968716815260208101959095528401929092526060830152909116608082015260a001610109565b6101386101e2366004610522565b610262565b6101386101f536600461054b565b6102f7565b6100f57f000000000000000000000000000000000000000000000000000000000000000081565b61019d6102ff565b610231610323565b61023b600061037d565b565b60008060008060008061024e6103e5565b909790965060009550429450859350915050565b61026a610323565b6001600160a01b0381166102eb5760405162461bcd60e51b815260206004820152602660248201527f4f776e61626c653a206e6577206f776e657220697320746865207a65726f206160448201527f646472657373000000000000000000000000000000000000000000000000000060648201526084015b60405180910390fd5b6102f48161037d565b50565b6102f4610323565b6000806000806000806103106103e5565b9096909550600094504293508492509050565b6000546001600160a01b0316331461023b5760405162461bcd60e51b815260206004820181905260248201527f4f776e61626c653a2063616c6c6572206973206e6f7420746865206f776e657260448201526064016102e2565b600080546001600160a01b038381167fffffffffffffffffffffffff0000000000000000000000000000000000000000831681178455604051919092169283917f8be0079c531659141344cd1fd0a4f28419497f9722a3daafe3b4186f6b6457e09190a35050565b60405163ad8dc75760e01b81526001600160a01b037f00000000000000000000000000000000000000000000000000000000000000008116600483015260009182917f0000000000000000000000000000000000000000000000000000000000000000169063ad8dc75790602401602060405180830381865afa158015610470573d6000803e3d6000fd5b505050506040513d601f19601f820116820180604052508101906104949190610564565b92915050565b600060208083528351808285015260005b818110156104c7578581018301518582016040015282016104ab565b818111156104d9576000604083870101525b50601f01601f1916929092016040019392505050565b60006020828403121561050157600080fd5b813569ffffffffffffffffffff8116811461051b57600080fd5b9392505050565b60006020828403121561053457600080fd5b81356001600160a01b038116811461051b57600080fd5b60006020828403121561055d57600080fd5b5035919050565b60006020828403121561057657600080fd5b505191905056fea2646970667358221220b7dcfc92e230f401fdb83fbec3fd0a54fb4d8cc2de9dbeddecaab10970c9832464736f6c634300080a00330000000000000000000000002d52467d074b3590760831af816046471a81bf3a000000000000000000000000833589fcd6edb6e08f4c7c32d4f71b54bda02913",
        "nonce": "0x3b",
        "accessList": []
      },
      "additionalContracts": [],
      "isFixedGasLimit": false
    },
    {
      "hash": "0xfc504b8b9f5e11c721037d97934582731bd39881e916002527aaebc3f0f75152",
      "transactionType": "CALL",
      "contractName": null,
      "contractAddress": "0xd47885EDA0A0b4ec79E5C37379e8D2e1d0B39017",
      "function": "createOracleVaultAndDefaultStrategy(address,address,address):(address,address)",
      "arguments": [
        "0x8E27E25D9DABc96f89A0eDc99e35D6e2a10b4fA0",
        "0x43A08d9C7A30645b41fc48C8E81c7AD3de5587Bd",
        "0x2443e5165DB8a8A7cff5d66Cb9861806332aCE4D"
      ],
      "transaction": {
        "type": "0x02",
        "from": "0xded212b8bab662b98f49e757cbb409bb7808dc10",
        "to": "0xd47885eda0a0b4ec79e5c37379e8d2e1d0b39017",
        "gas": "0xd83f7",
        "value": "0x0",
        "data": "0x7420fc240000000000000000000000008e27e25d9dabc96f89a0edc99e35d6e2a10b4fa000000000000000000000000043a08d9c7a30645b41fc48c8e81c7ad3de5587bd0000000000000000000000002443e5165db8a8a7cff5d66cb9861806332ace4d",
        "nonce": "0x3c",
        "accessList": []
      },
      "additionalContracts": [
        {
          "transactionType": "CREATE2",
          "address": "0xed2b50F4AEb71D759a461806C6A220c8977fc9Ff",
          "initCode": "0x61009d3d81600a3d39f3363d3d373d3d3d3d610068806035363936013d73c0303760e38bfe1ab1484c6e2d892640a94484dc5af43d3d93803e603357fd5bf38e27e25d9dabc96f89a0edc99e35d6e2a10b4fa04200000000000000000000000000000000000006833589fcd6edb6e08f4c7c32d4f71b54bda02913120643a08d9c7a30645b41fc48c8e81c7ad3de5587bd2443e5165db8a8a7cff5d66cb9861806332ace4d0068"
        },
        {
          "transactionType": "CREATE2",
          "address": "0x0b38553912024146AAFCEb518Cb9994Fa48595a8",
          "initCode": "0x6100873d81600a3d39f3363d3d373d3d3d3d610052806035363936013d732807f5fd3f8fb2810a351bfe0255527103616c6f5af43d3d93803e603357fd5bf3ed2b50f4aeb71d759a461806c6a220c8977fc9ff8e27e25d9dabc96f89a0edc99e35d6e2a10b4fa04200000000000000000000000000000000000006833589fcd6edb6e08f4c7c32d4f71b54bda029130052"
        }
      ],
      "isFixedGasLimit": false
    },
    {
      "hash": "0xb9ddaf9874617bb8b8fd65df8bc5c4540706c3df453df80c0542a9379184e888",
      "transactionType": "CALL",
      "contractName": null,
      "contractAddress": "0xd47885EDA0A0b4ec79E5C37379e8D2e1d0B39017",
      "function": "setOperator(address,address)",
      "arguments": [
        "0x0b38553912024146AAFCEb518Cb9994Fa48595a8",
        "0xcaD3477b8D2569c849298E82D10046eD422AC258"
      ],
      "transaction": {
        "type": "0x02",
        "from": "0xded212b8bab662b98f49e757cbb409bb7808dc10",
        "to": "0xd47885eda0a0b4ec79e5c37379e8d2e1d0b39017",
        "gas": "0x148f3",
        "value": "0x0",
        "data": "0xf1ead1260000000000000000000000000b38553912024146aafceb518cb9994fa48595a8000000000000000000000000cad3477b8d2569c849298e82d10046ed422ac258",
        "nonce": "0x3d",
        "accessList": []
      },
      "additionalContracts": [],
      "isFixedGasLimit": false
    },
    {
      "hash": "0xb48c812ba3daa79aecb213a4fbe962421e6080e5a4a7002dd68952aef1960660",
      "transactionType": "CALL",
      "contractName": null,
      "contractAddress": "0xd47885EDA0A0b4ec79E5C37379e8D2e1d0B39017",
      "function": "setPendingAumAnnualFee(address,uint16)",
      "arguments": [
        "0xed2b50F4AEb71D759a461806C6A220c8977fc9Ff",
        "400"
      ],
      "transaction": {
        "type": "0x02",
        "from": "0xded212b8bab662b98f49e757cbb409bb7808dc10",
        "to": "0xd47885eda0a0b4ec79e5c37379e8d2e1d0b39017",
        "gas": "0x188f7",
        "value": "0x0",
        "data": "0xd2ea3e6f000000000000000000000000ed2b50f4aeb71d759a461806c6a220c8977fc9ff0000000000000000000000000000000000000000000000000000000000000190",
        "nonce": "0x3e",
        "accessList": []
      },
      "additionalContracts": [],
      "isFixedGasLimit": false
    }
  ],
  "receipts": [
    {
      "transactionHash": "0xc65f949bcc15ee6ace0d3f3e6ed9f9b5fed2cc3a0748a6a9b0ade69b30478a17",
      "transactionIndex": "0x1",
      "blockHash": "0xc77317792ec112d03bb837e256a93a113a797ba9c3df8230ed81149681004a47",
      "blockNumber": "0x3a41e1",
      "from": "0xdeD212B8BAb662B98f49e757CbB409BB7808dc10",
      "to": null,
      "cumulativeGasUsed": "0x6bd22",
      "gasUsed": "0x605e1",
      "contractAddress": "0x43A08d9C7A30645b41fc48C8E81c7AD3de5587Bd",
      "logs": [
        {
          "address": "0x43A08d9C7A30645b41fc48C8E81c7AD3de5587Bd",
          "topics": [
            "0x8be0079c531659141344cd1fd0a4f28419497f9722a3daafe3b4186f6b6457e0",
            "0x0000000000000000000000000000000000000000000000000000000000000000",
            "0x000000000000000000000000ded212b8bab662b98f49e757cbb409bb7808dc10"
          ],
          "data": "0x",
          "blockHash": "0xc77317792ec112d03bb837e256a93a113a797ba9c3df8230ed81149681004a47",
          "blockNumber": "0x3a41e1",
          "transactionHash": "0xc65f949bcc15ee6ace0d3f3e6ed9f9b5fed2cc3a0748a6a9b0ade69b30478a17",
          "transactionIndex": "0x1",
          "logIndex": "0x0",
          "removed": false
        }
      ],
      "status": "0x1",
      "logsBloom": "0x02000000000000000000000000000000000000000000000000800000000000000000000000000000000200000000000000000000000002000000000000000000000000000000000000000000000000000001000000000000400000000000000000000000020000000000000000000800000000000000000000000000000020400000000000000000000000000000000000000000000000000000000000000000000000000000000000000000000000000000000000000000000000000000000000000000000000000000000000000000000000000000000000000000000020000000000000000000000008000000000000000000000000000000000000000000",
      "type": "0x2",
      "effectiveGasPrice": "0xbebc200"
    },
    {
      "transactionHash": "0x5daa6df8ff09768a9b8a35b54c8286577befe12bd310bad3975714d2cb05988b",
      "transactionIndex": "0x2",
      "blockHash": "0xc77317792ec112d03bb837e256a93a113a797ba9c3df8230ed81149681004a47",
      "blockNumber": "0x3a41e1",
      "from": "0xdeD212B8BAb662B98f49e757CbB409BB7808dc10",
      "to": null,
      "cumulativeGasUsed": "0xcc3db",
      "gasUsed": "0x606b9",
      "contractAddress": "0x2443e5165DB8a8A7cff5d66Cb9861806332aCE4D",
      "logs": [
        {
          "address": "0x2443e5165DB8a8A7cff5d66Cb9861806332aCE4D",
          "topics": [
            "0x8be0079c531659141344cd1fd0a4f28419497f9722a3daafe3b4186f6b6457e0",
            "0x0000000000000000000000000000000000000000000000000000000000000000",
            "0x000000000000000000000000ded212b8bab662b98f49e757cbb409bb7808dc10"
          ],
          "data": "0x",
          "blockHash": "0xc77317792ec112d03bb837e256a93a113a797ba9c3df8230ed81149681004a47",
          "blockNumber": "0x3a41e1",
          "transactionHash": "0x5daa6df8ff09768a9b8a35b54c8286577befe12bd310bad3975714d2cb05988b",
          "transactionIndex": "0x2",
          "logIndex": "0x1",
          "removed": false
        }
      ],
      "status": "0x1",
      "logsBloom": "0x00000000000000000000000000000000000000000000000000800000000000000000000000000000000200000000000000000000000002000000000000000000000000000000000040000000000000000001000000000000000000000000000000000000020000000000000000000800000000000000000000000000000000400000000000000000000000000000000000000000000000000000000000000001000000000000000000000000000000000000000000000000000000000000000000000000000000000000000000000000000000000000000000000000000020000000000000000000000008000000000000000000000000000000000000100000",
      "type": "0x2",
      "effectiveGasPrice": "0xbebc200"
    },
    {
      "transactionHash": "0xfc504b8b9f5e11c721037d97934582731bd39881e916002527aaebc3f0f75152",
      "transactionIndex": "0x3",
      "blockHash": "0xc77317792ec112d03bb837e256a93a113a797ba9c3df8230ed81149681004a47",
      "blockNumber": "0x3a41e1",
      "from": "0xdeD212B8BAb662B98f49e757CbB409BB7808dc10",
      "to": "0xd47885EDA0A0b4ec79E5C37379e8D2e1d0B39017",
      "cumulativeGasUsed": "0x1601a5",
      "gasUsed": "0x93dca",
      "contractAddress": null,
      "logs": [
        {
          "address": "0xed2b50F4AEb71D759a461806C6A220c8977fc9Ff",
          "topics": [
            "0x7f26b83ff96e1f2b6a682f133852f6798a09c465da95921460cefb3847402498"
          ],
          "data": "0x0000000000000000000000000000000000000000000000000000000000000001",
          "blockHash": "0xc77317792ec112d03bb837e256a93a113a797ba9c3df8230ed81149681004a47",
          "blockNumber": "0x3a41e1",
          "transactionHash": "0xfc504b8b9f5e11c721037d97934582731bd39881e916002527aaebc3f0f75152",
          "transactionIndex": "0x3",
          "logIndex": "0x2",
          "removed": false
        },
        {
          "address": "0xd47885EDA0A0b4ec79E5C37379e8D2e1d0B39017",
          "topics": [
            "0x26798ef23bd7db8419fdda379cda53e0de5b8e1ffd114dd33e22b266deb97466",
            "0x0000000000000000000000000000000000000000000000000000000000000002",
            "0x000000000000000000000000ed2b50f4aeb71d759a461806c6a220c8977fc9ff",
            "0x0000000000000000000000008e27e25d9dabc96f89a0edc99e35d6e2a10b4fa0"
          ],
          "data": "0x00000000000000000000000000000000000000000000000000000000000000010000000000000000000000004200000000000000000000000000000000000006000000000000000000000000833589fcd6edb6e08f4c7c32d4f71b54bda02913",
          "blockHash": "0xc77317792ec112d03bb837e256a93a113a797ba9c3df8230ed81149681004a47",
          "blockNumber": "0x3a41e1",
          "transactionHash": "0xfc504b8b9f5e11c721037d97934582731bd39881e916002527aaebc3f0f75152",
          "transactionIndex": "0x3",
          "logIndex": "0x3",
          "removed": false
        },
        {
          "address": "0x0b38553912024146AAFCEb518Cb9994Fa48595a8",
          "topics": [
            "0x7f26b83ff96e1f2b6a682f133852f6798a09c465da95921460cefb3847402498"
          ],
          "data": "0x0000000000000000000000000000000000000000000000000000000000000001",
          "blockHash": "0xc77317792ec112d03bb837e256a93a113a797ba9c3df8230ed81149681004a47",
          "blockNumber": "0x3a41e1",
          "transactionHash": "0xfc504b8b9f5e11c721037d97934582731bd39881e916002527aaebc3f0f75152",
          "transactionIndex": "0x3",
          "logIndex": "0x4",
          "removed": false
        },
        {
          "address": "0xd47885EDA0A0b4ec79E5C37379e8D2e1d0B39017",
          "topics": [
            "0x7f3ddd910e1c9340e31f34f1074d0c2cccc07cd667e361fac27cdaa08ae91c09",
            "0x0000000000000000000000000000000000000000000000000000000000000001",
            "0x0000000000000000000000000b38553912024146aafceb518cb9994fa48595a8",
            "0x000000000000000000000000ed2b50f4aeb71d759a461806c6a220c8977fc9ff"
          ],
          "data": "0x0000000000000000000000008e27e25d9dabc96f89a0edc99e35d6e2a10b4fa00000000000000000000000000000000000000000000000000000000000000001",
          "blockHash": "0xc77317792ec112d03bb837e256a93a113a797ba9c3df8230ed81149681004a47",
          "blockNumber": "0x3a41e1",
          "transactionHash": "0xfc504b8b9f5e11c721037d97934582731bd39881e916002527aaebc3f0f75152",
          "transactionIndex": "0x3",
          "logIndex": "0x5",
          "removed": false
        },
        {
          "address": "0xed2b50F4AEb71D759a461806C6A220c8977fc9Ff",
          "topics": [
            "0xe70d79dad95c835bdd87e9cf4665651c9e5abb3b756e4fd2bf45f29c95c3aa40"
          ],
          "data": "0x0000000000000000000000000b38553912024146aafceb518cb9994fa48595a8",
          "blockHash": "0xc77317792ec112d03bb837e256a93a113a797ba9c3df8230ed81149681004a47",
          "blockNumber": "0x3a41e1",
          "transactionHash": "0xfc504b8b9f5e11c721037d97934582731bd39881e916002527aaebc3f0f75152",
          "transactionIndex": "0x3",
          "logIndex": "0x6",
          "removed": false
        }
      ],
      "status": "0x1",
      "logsBloom": "0x040000000000000000000000000400000000000000000000000000000000000000000004000004000000001000000000000000000000000000000000000400000000000002400008000000000000000000000000000400000000000000000000000000000000000000a00000000000000000000100004000000000000800004000000000000000000000c000000000000000000000008000010000000020000000000000000000000000010000040001000000000800000000082000000000000000000100000000000000000004000000000000000000000000000000004000000000000002000000000000000000020000100000c000000000001000000000",
      "type": "0x2",
      "effectiveGasPrice": "0xbebc200"
    },
    {
      "transactionHash": "0xb9ddaf9874617bb8b8fd65df8bc5c4540706c3df453df80c0542a9379184e888",
      "transactionIndex": "0x4",
      "blockHash": "0xc77317792ec112d03bb837e256a93a113a797ba9c3df8230ed81149681004a47",
      "blockNumber": "0x3a41e1",
      "from": "0xdeD212B8BAb662B98f49e757CbB409BB7808dc10",
      "to": "0xd47885EDA0A0b4ec79E5C37379e8D2e1d0B39017",
      "cumulativeGasUsed": "0x16efcd",
      "gasUsed": "0xee28",
      "contractAddress": null,
      "logs": [
        {
          "address": "0x0b38553912024146AAFCEb518Cb9994Fa48595a8",
          "topics": [
            "0x99d737e0adf2c449d71890b86772885ec7959b152ddb265f76325b6e68e105d3"
          ],
          "data": "0x000000000000000000000000cad3477b8d2569c849298e82d10046ed422ac258",
          "blockHash": "0xc77317792ec112d03bb837e256a93a113a797ba9c3df8230ed81149681004a47",
          "blockNumber": "0x3a41e1",
          "transactionHash": "0xb9ddaf9874617bb8b8fd65df8bc5c4540706c3df453df80c0542a9379184e888",
          "transactionIndex": "0x4",
          "logIndex": "0x7",
          "removed": false
        }
      ],
      "status": "0x1",
      "logsBloom": "0x00000000000000000000000000000000000000000000000000000000000000000000000400000400000000000000000000000000000000000000000000000000000000000000000000000000000000000080000000000000000000000000010000000000000000000000000000000000000000000000000000000000000000000000000000000000000040000000000000000000000000000000000000000000000000000000000000000000000000000000000000000000000000000000000000000001000000000000000000000000000000000000000000000000000000000000000000000000000000000000000000000000000000000000000000000000",
      "type": "0x2",
      "effectiveGasPrice": "0xbebc200"
    },
    {
      "transactionHash": "0xb48c812ba3daa79aecb213a4fbe962421e6080e5a4a7002dd68952aef1960660",
      "transactionIndex": "0x5",
      "blockHash": "0xc77317792ec112d03bb837e256a93a113a797ba9c3df8230ed81149681004a47",
      "blockNumber": "0x3a41e1",
      "from": "0xdeD212B8BAb662B98f49e757CbB409BB7808dc10",
      "to": "0xd47885EDA0A0b4ec79E5C37379e8D2e1d0B39017",
      "cumulativeGasUsed": "0x17fc7f",
      "gasUsed": "0x10cb2",
      "contractAddress": null,
      "logs": [
        {
          "address": "0x0b38553912024146AAFCEb518Cb9994Fa48595a8",
          "topics": [
            "0x2064b6a31813c8de04af9c12dfbf6ba681b73d537a727b8105b0a148c67f9252"
          ],
          "data": "0x0000000000000000000000000000000000000000000000000000000000000190",
          "blockHash": "0xc77317792ec112d03bb837e256a93a113a797ba9c3df8230ed81149681004a47",
          "blockNumber": "0x3a41e1",
          "transactionHash": "0xb48c812ba3daa79aecb213a4fbe962421e6080e5a4a7002dd68952aef1960660",
          "transactionIndex": "0x5",
          "logIndex": "0x8",
          "removed": false
        }
      ],
      "status": "0x1",
      "logsBloom": "0x00000000000000000000000000000000000000000000000000000000000000000000000400000400000010000000000000000000000000000000000000000000000000000000000000000000000000000000000000000000000000000000000000000000200000000000000000000000000000000000000000000000000000000000000000000000000000000000000000000000000000000000000000000000000000000000000000000080000000000000000000000000000000000000000000000001000000000000000000000000000000000000000000000000000000000000000000000000000000000000000000000000000000000000000000000000",
      "type": "0x2",
      "effectiveGasPrice": "0xbebc200"
    }
  ],
  "libraries": [],
  "pending": [],
  "returns": {},
  "timestamp": 1694425257,
  "chain": 8453,
  "multi": false,
  "commit": "5fa03a5"
}