{
  "transactions": [
    {
      "hash": "0xc4a14d1ec0ca639de0819023614d61e14f7b12f401e43f5f1f878f86797b5f52",
      "transactionType": "CALL",
      "contractName": null,
      "contractAddress": "0xa86d3169d5cccdc224637adad34f4f1be174000c",
      "function": "increaseOracleLength(uint16)",
      "arguments": [
        "4"
      ],
      "transaction": {
        "from": "0x7f76d5b3a33a87061b5184ae9bd301d6b7333185",
        "to": "0xa86d3169d5cccdc224637adad34f4f1be174000c",
        "gas": "0x2be6a",
        "value": "0x0",
        "input": "0xc7bd65860000000000000000000000000000000000000000000000000000000000000004",
        "nonce": "0x59",
        "chainId": "0x2276"
      },
      "additionalContracts": [],
      "isFixedGasLimit": false
    },
    {
      "hash": "0x53de1e90440342e05f505e2f9e2baa081674f822be21c17a27356f3bfdb15968",
      "transactionType": "CALL",
      "contractName": null,
      "contractAddress": "0xf450de087ddfbef293699099934713802b57c1f1",
      "function": "setPairWhitelist(address[],bool)",
      "arguments": [
        "[0xa86d3169d5cccdC224637aDAd34F4F1Be174000C]",
        "true"
      ],
      "transaction": {
        "from": "0x7f76d5b3a33a87061b5184ae9bd301d6b7333185",
        "to": "0xf450de087ddfbef293699099934713802b57c1f1",
        "gas": "0x131ef",
        "value": "0x0",
        "input": "0x05d33741000000000000000000000000000000000000000000000000000000000000004000000000000000000000000000000000000000000000000000000000000000010000000000000000000000000000000000000000000000000000000000000001000000000000000000000000a86d3169d5cccdc224637adad34f4f1be174000c",
        "nonce": "0x5a",
        "chainId": "0x2276"
      },
      "additionalContracts": [],
      "isFixedGasLimit": false
    }
  ],
  "receipts": [
    {
      "status": "0x1",
      "cumulativeGasUsed": "0x1c749",
      "logs": [
        {
          "address": "0xa86d3169d5cccdc224637adad34f4f1be174000c",
          "topics": [
            "0xc975541e72d695746a43ba65745d79963a23082637c8f4609354d9bcf70194d6",
            "0x0000000000000000000000007f76d5b3a33a87061b5184ae9bd301d6b7333185"
          ],
          "data": "0x0000000000000000000000000000000000000000000000000000000000000004",
          "blockHash": "0xee84644e5a77e6d72b81825371ceebf5682530f9e41c101cd2ba60cdc02c8faa",
          "blockNumber": "0x4af008",
          "transactionHash": "0xc4a14d1ec0ca639de0819023614d61e14f7b12f401e43f5f1f878f86797b5f52",
          "transactionIndex": "0x0",
          "logIndex": "0x0",
          "removed": false
        }
      ],
      "logsBloom": "0x00000000000000002000000000000000020000000000000000000100000000000000000000000000000000000000000000000000000000000000000000000000000000000000000000000000000000000000000000000000200008000000000000000000000000000000000000000000000000000010000000000000000000000000000000000010000000000000000000000000000000000000000400000000000000000000000000000000000000000000000000000000000000000000000000000000000000000000000000000000000000000000000000000000000000000000000000000000000000000000000000000000000100000000000000000000",
      "type": "0x0",
      "transactionHash": "0xc4a14d1ec0ca639de0819023614d61e14f7b12f401e43f5f1f878f86797b5f52",
      "transactionIndex": "0x0",
      "blockHash": "0xee84644e5a77e6d72b81825371ceebf5682530f9e41c101cd2ba60cdc02c8faa",
      "blockNumber": "0x4af008",
      "gasUsed": "0x1c749",
      "effectiveGasPrice": "0x2540be400",
      "from": "0x7f76d5b3a33a87061b5184ae9bd301d6b7333185",
      "to": "0xa86d3169d5cccdc224637adad34f4f1be174000c",
      "contractAddress": null
    },
    {
      "status": "0x1",
      "cumulativeGasUsed": "0x50d68",
      "logs": [
        {
          "address": "0xf450de087ddfbef293699099934713802b57c1f1",
          "topics": [
            "0x0c948485f94e8de02a7b481333033de57f6a09532dd3e1c119a7f1a572a6643e"
          ],
          "data": "0x000000000000000000000000000000000000000000000000000000000000004000000000000000000000000000000000000000000000000000000000000000010000000000000000000000000000000000000000000000000000000000000001000000000000000000000000a86d3169d5cccdc224637adad34f4f1be174000c",
          "blockHash": "0x7d52df709203881491d933ee459ed4c82f11039e98e8dec75b6fcf6b1a342f38",
          "blockNumber": "0x4af009",
          "transactionHash": "0x53de1e90440342e05f505e2f9e2baa081674f822be21c17a27356f3bfdb15968",
          "transactionIndex": "0x1",
          "logIndex": "0x8",
          "removed": false
        }
      ],
      "logsBloom": "0x00000000000000000000000000000000000000000000000000000000000000000000000001000000000000000000000000000000000000000000000000000000000000000000000000000000000000000000000000000000000000000000000000000001000000000000000000000000080400000000000000000000000000000000000000000000000000000008000000000000000000000000000000000000000000000000000000000000000000000000000000000000000000000000000000000000000000000000000000000000000020000000000000000000000000000000000000000000000000000000000000000000000000000000000000000000",
      "type": "0x0",
      "transactionHash": "0x53de1e90440342e05f505e2f9e2baa081674f822be21c17a27356f3bfdb15968",
      "transactionIndex": "0x1",
      "blockHash": "0x7d52df709203881491d933ee459ed4c82f11039e98e8dec75b6fcf6b1a342f38",
      "blockNumber": "0x4af009",
      "gasUsed": "0xb47b",
      "effectiveGasPrice": "0x2540be400",
      "from": "0x7f76d5b3a33a87061b5184ae9bd301d6b7333185",
      "to": "0xf450de087ddfbef293699099934713802b57c1f1",
      "contractAddress": null
    }
  ],
  "libraries": [],
  "pending": [],
  "returns": {},
  "timestamp": 1739969471,
  "chain": 8822,
  "commit": "c202239"
}