{
  "transactions": [
    {
      "hash": "0xf7f8e996a9849ec4c4e084f4f5c5bc2ef91cf6fb268d39f530366d0abf8a5ba3",
      "transactionType": "CALL",
      "contractName": null,
      "contractAddress": "0xbac6c7808c453e988163283eb71e876cb325a3ee",
      "function": "increaseOracleLength(uint16)",
      "arguments": [
        "4"
      ],
      "transaction": {
        "from": "0x7f76d5b3a33a87061b5184ae9bd301d6b7333185",
        "to": "0xbac6c7808c453e988163283eb71e876cb325a3ee",
        "gas": "0x2be6a",
        "value": "0x0",
        "input": "0xc7bd65860000000000000000000000000000000000000000000000000000000000000004",
        "nonce": "0x5b",
        "chainId": "0x2276"
      },
      "additionalContracts": [],
      "isFixedGasLimit": false
    },
    {
      "hash": "0x3dce888db38cf5a790c56017175ff04520eb1f2135fb43356ee259c726867565",
      "transactionType": "CALL",
      "contractName": null,
      "contractAddress": "0xe919092cc7cbd2097ae3158f72da484ac813b74b",
      "function": "increaseOracleLength(uint16)",
      "arguments": [
        "4"
      ],
      "transaction": {
        "from": "0x7f76d5b3a33a87061b5184ae9bd301d6b7333185",
        "to": "0xe919092cc7cbd2097ae3158f72da484ac813b74b",
        "gas": "0x2be6a",
        "value": "0x0",
        "input": "0xc7bd65860000000000000000000000000000000000000000000000000000000000000004",
        "nonce": "0x5c",
        "chainId": "0x2276"
      },
      "additionalContracts": [],
      "isFixedGasLimit": false
    },
    {
      "hash": "0x212138176b0b57906b27d240c653a29e5781e5705b9827c6d8bf753308e8c50e",
      "transactionType": "CALL",
      "contractName": null,
      "contractAddress": "0xf450de087ddfbef293699099934713802b57c1f1",
      "function": "setPairWhitelist(address[],bool)",
      "arguments": [
        "[0xbac6c7808C453E988163283Eb71E876cB325A3EE, 0xE919092CC7CBD2097ae3158f72Da484ac813b74b]",
        "true"
      ],
      "transaction": {
        "from": "0x7f76d5b3a33a87061b5184ae9bd301d6b7333185",
        "to": "0xf450de087ddfbef293699099934713802b57c1f1",
        "gas": "0x1b01a",
        "value": "0x0",
        "input": "0x05d33741000000000000000000000000000000000000000000000000000000000000004000000000000000000000000000000000000000000000000000000000000000010000000000000000000000000000000000000000000000000000000000000002000000000000000000000000bac6c7808c453e988163283eb71e876cb325a3ee000000000000000000000000e919092cc7cbd2097ae3158f72da484ac813b74b",
        "nonce": "0x5d",
        "chainId": "0x2276"
      },
      "additionalContracts": [],
      "isFixedGasLimit": false
    }
  ],
  "receipts": [
    {
      "status": "0x1",
      "cumulativeGasUsed": "0x1c749",
      "logs": [
        {
          "address": "0xbac6c7808c453e988163283eb71e876cb325a3ee",
          "topics": [
            "0xc975541e72d695746a43ba65745d79963a23082637c8f4609354d9bcf70194d6",
            "0x0000000000000000000000007f76d5b3a33a87061b5184ae9bd301d6b7333185"
          ],
          "data": "0x0000000000000000000000000000000000000000000000000000000000000004",
          "blockHash": "0x23f0762ff2de359c613b50912a1d125f7c0e91cb172b304eec3f04710818c604",
          "blockNumber": "0x4ba989",
          "transactionHash": "0xf7f8e996a9849ec4c4e084f4f5c5bc2ef91cf6fb268d39f530366d0abf8a5ba3",
          "transactionIndex": "0x0",
          "logIndex": "0x0",
          "removed": false
        }
      ],
      "logsBloom": "0x00000000000000002000000000000000000000000000000000000100000000000000000000000000000000000000000000000000000000000000000000000000000000000000000000000004000000000000000000000000200000000000100000000000000000000000000000000000000000000010000000000000000000000000000000000010000000000000000000000000000000000000000000000000000000000000000000000000000000000000000000000000000000000040000000000000000000000000000000000000000000000000000000000000000000000000000000000000000000000000000000000000000100000000000000000000",
      "type": "0x0",
      "transactionHash": "0xf7f8e996a9849ec4c4e084f4f5c5bc2ef91cf6fb268d39f530366d0abf8a5ba3",
      "transactionIndex": "0x0",
      "blockHash": "0x23f0762ff2de359c613b50912a1d125f7c0e91cb172b304eec3f04710818c604",
      "blockNumber": "0x4ba989",
      "gasUsed": "0x1c749",
      "effectiveGasPrice": "0x2540be400",
      "from": "0x7f76d5b3a33a87061b5184ae9bd301d6b7333185",
      "to": "0xbac6c7808c453e988163283eb71e876cb325a3ee",
      "contractAddress": null
    },
    {
      "status": "0x1",
      "cumulativeGasUsed": "0x1c749",
      "logs": [
        {
          "address": "0xe919092cc7cbd2097ae3158f72da484ac813b74b",
          "topics": [
            "0xc975541e72d695746a43ba65745d79963a23082637c8f4609354d9bcf70194d6",
            "0x0000000000000000000000007f76d5b3a33a87061b5184ae9bd301d6b7333185"
          ],
          "data": "0x0000000000000000000000000000000000000000000000000000000000000004",
          "blockHash": "0x1af2d1b8a6a664ad893d7f444e24dd488c0e0341d912016f69c812b07ecaf9cf",
          "blockNumber": "0x4ba98a",
          "transactionHash": "0x3dce888db38cf5a790c56017175ff04520eb1f2135fb43356ee259c726867565",
          "transactionIndex": "0x0",
          "logIndex": "0x0",
          "removed": false
        }
      ],
      "logsBloom": "0x00000000000000002000000000000000000000000000000000000100000000000000000000000000000000000000020000000000000000000000000000000000000000000000000000000000000000000000000000000000200000000000000000000000000000000000000000000000000000000010000000000000000000000000000000000010000000000000000000000000000000000000000000000000000000000000000000000000000000000000000000000000000000000000000000000000000000000000000000000000000000000000000000000000000000000000000000000000000000000000000000000000800100000000400000000000",
      "type": "0x0",
      "transactionHash": "0x3dce888db38cf5a790c56017175ff04520eb1f2135fb43356ee259c726867565",
      "transactionIndex": "0x0",
      "blockHash": "0x1af2d1b8a6a664ad893d7f444e24dd488c0e0341d912016f69c812b07ecaf9cf",
      "blockNumber": "0x4ba98a",
      "gasUsed": "0x1c749",
      "effectiveGasPrice": "0x2540be400",
      "from": "0x7f76d5b3a33a87061b5184ae9bd301d6b7333185",
      "to": "0xe919092cc7cbd2097ae3158f72da484ac813b74b",
      "contractAddress": null
    },
    {
      "status": "0x1",
      "cumulativeGasUsed": "0x2cf4b",
      "logs": [
        {
          "address": "0xf450de087ddfbef293699099934713802b57c1f1",
          "topics": [
            "0x0c948485f94e8de02a7b481333033de57f6a09532dd3e1c119a7f1a572a6643e"
          ],
          "data": "0x000000000000000000000000000000000000000000000000000000000000004000000000000000000000000000000000000000000000000000000000000000010000000000000000000000000000000000000000000000000000000000000002000000000000000000000000bac6c7808c453e988163283eb71e876cb325a3ee000000000000000000000000e919092cc7cbd2097ae3158f72da484ac813b74b",
          "blockHash": "0x1af2d1b8a6a664ad893d7f444e24dd488c0e0341d912016f69c812b07ecaf9cf",
          "blockNumber": "0x4ba98a",
          "transactionHash": "0x212138176b0b57906b27d240c653a29e5781e5705b9827c6d8bf753308e8c50e",
          "transactionIndex": "0x1",
          "logIndex": "0x1",
          "removed": false
        }
      ],
      "logsBloom": "0x00000000000000000000000000000000000000000000000000000000000000000000000001000000000000000000000000000000000000000000000000000000000000000000000000000000000000000000000000000000000000000000000000000001000000000000000000000000080400000000000000000000000000000000000000000000000000000008000000000000000000000000000000000000000000000000000000000000000000000000000000000000000000000000000000000000000000000000000000000000000020000000000000000000000000000000000000000000000000000000000000000000000000000000000000000000",
      "type": "0x0",
      "transactionHash": "0x212138176b0b57906b27d240c653a29e5781e5705b9827c6d8bf753308e8c50e",
      "transactionIndex": "0x1",
      "blockHash": "0x1af2d1b8a6a664ad893d7f444e24dd488c0e0341d912016f69c812b07ecaf9cf",
      "blockNumber": "0x4ba98a",
      "gasUsed": "0x10802",
      "effectiveGasPrice": "0x2540be400",
      "from": "0x7f76d5b3a33a87061b5184ae9bd301d6b7333185",
      "to": "0xf450de087ddfbef293699099934713802b57c1f1",
      "contractAddress": null
    }
  ],
  "libraries": [],
  "pending": [],
  "returns": {},
  "timestamp": 1740141892,
  "chain": 8822,
  "commit": "2f85d24"
}