{
  "transactions": [
    {
      "hash": "0x4b77ad3de467e20fb08f93cb9eac4296585f815bc6c95a813937edc7f72506cf",
      "transactionType": "CALL",
      "contractName": null,
      "contractAddress": "0xdd93c63ffc4b4a85daaec86a4752d616e03a3015",
      "function": "increaseOracleLength(uint16)",
      "arguments": [
        "4"
      ],
      "transaction": {
        "from": "0x4a3723b6e427ecbd90f2848d6df9381a676a02b9",
        "to": "0xdd93c63ffc4b4a85daaec86a4752d616e03a3015",
        "gas": "0x2be6a",
        "value": "0x0",
        "input": "0xc7bd65860000000000000000000000000000000000000000000000000000000000000004",
        "nonce": "0x1c5",
        "chainId": "0x92"
      },
      "additionalContracts": [],
      "isFixedGasLimit": false
    },
    {
      "hash": "0x1c32f3bfdbb33b07f2e9ce6f7eef9d16cf30d28f8ef1aba88bfa25fb836a4a91",
      "transactionType": "CALL",
      "contractName": null,
      "contractAddress": "0xebcce8b534a35e93c7cf25f3fff2f8202f9f0655",
      "function": "increaseOracleLength(uint16)",
      "arguments": [
        "4"
      ],
      "transaction": {
        "from": "0x4a3723b6e427ecbd90f2848d6df9381a676a02b9",
        "to": "0xebcce8b534a35e93c7cf25f3fff2f8202f9f0655",
        "gas": "0x2be6a",
        "value": "0x0",
        "input": "0xc7bd65860000000000000000000000000000000000000000000000000000000000000004",
        "nonce": "0x1c6",
        "chainId": "0x92"
      },
      "additionalContracts": [],
      "isFixedGasLimit": false
    },
    {
      "hash": "0x3464b21356fd060e6b65ecd4e643ae530c43b5bdaf9f7d5996e76881ca6f420e",
      "transactionType": "CALL",
      "contractName": null,
      "contractAddress": "0x6ea10f2bd54520c5ea9a988f34a07b89a2c1b441",
      "function": "increaseOracleLength(uint16)",
      "arguments": [
        "4"
      ],
      "transaction": {
        "from": "0x4a3723b6e427ecbd90f2848d6df9381a676a02b9",
        "to": "0x6ea10f2bd54520c5ea9a988f34a07b89a2c1b441",
        "gas": "0x2be6a",
        "value": "0x0",
        "input": "0xc7bd65860000000000000000000000000000000000000000000000000000000000000004",
        "nonce": "0x1c7",
        "chainId": "0x92"
      },
      "additionalContracts": [],
      "isFixedGasLimit": false
    },
    {
      "hash": "0x0f71b960b7f99b2818a17c3a9495991858486c50c6dc904fcd3532e75c47c7ee",
      "transactionType": "CALL",
      "contractName": null,
      "contractAddress": "0x3987a13d675c66570bc28c955685a9bca2dcf26e",
      "function": "increaseOracleLength(uint16)",
      "arguments": [
        "4"
      ],
      "transaction": {
        "from": "0x4a3723b6e427ecbd90f2848d6df9381a676a02b9",
        "to": "0x3987a13d675c66570bc28c955685a9bca2dcf26e",
        "gas": "0x2be6a",
        "value": "0x0",
        "input": "0xc7bd65860000000000000000000000000000000000000000000000000000000000000004",
        "nonce": "0x1c8",
        "chainId": "0x92"
      },
      "additionalContracts": [],
      "isFixedGasLimit": false
    },
    {
      "hash": "0x900b0cd3edbef54f01d6fe4151fddb2d35bdda70fdd1ff784a7225dfc2e5b364",
      "transactionType": "CALL",
      "contractName": null,
      "contractAddress": "0x74717286ecb77bfad051e3db5ec6433f2a6a1b9b",
      "function": "increaseOracleLength(uint16)",
      "arguments": [
        "4"
      ],
      "transaction": {
        "from": "0x4a3723b6e427ecbd90f2848d6df9381a676a02b9",
        "to": "0x74717286ecb77bfad051e3db5ec6433f2a6a1b9b",
        "gas": "0x2be6a",
        "value": "0x0",
        "input": "0xc7bd65860000000000000000000000000000000000000000000000000000000000000004",
        "nonce": "0x1c9",
        "chainId": "0x92"
      },
      "additionalContracts": [],
      "isFixedGasLimit": false
    },
    {
      "hash": "0x49edb9367ce27d3bc277fd5ced0753c0c2ace033910e0faa95c0a13377391cfb",
      "transactionType": "CALL",
      "contractName": null,
      "contractAddress": "0x197d40b36677248e82939f96930bf4e7fe8ad1c2",
      "function": "setPairWhitelist(address[],bool)",
      "arguments": [
        "[0xdD93c63fFC4B4a85daaec86a4752D616E03a3015, 0xEbcCE8b534A35E93c7Cf25f3FfF2F8202F9f0655, 0x6ea10f2bd54520c5EA9a988F34a07b89A2C1B441, 0x3987a13D675c66570bC28c955685a9bcA2dCF26e, 0x74717286ECb77Bfad051e3Db5Ec6433f2A6A1B9b]",
        "true"
      ],
      "transaction": {
        "from": "0x4a3723b6e427ecbd90f2848d6df9381a676a02b9",
        "to": "0x197d40b36677248e82939f96930bf4e7fe8ad1c2",
        "gas": "0x32a65",
        "value": "0x0",
        "input": "0x05d33741000000000000000000000000000000000000000000000000000000000000004000000000000000000000000000000000000000000000000000000000000000010000000000000000000000000000000000000000000000000000000000000005000000000000000000000000dd93c63ffc4b4a85daaec86a4752d616e03a3015000000000000000000000000ebcce8b534a35e93c7cf25f3fff2f8202f9f06550000000000000000000000006ea10f2bd54520c5ea9a988f34a07b89a2c1b4410000000000000000000000003987a13d675c66570bc28c955685a9bca2dcf26e00000000000000000000000074717286ecb77bfad051e3db5ec6433f2a6a1b9b",
        "nonce": "0x1ca",
        "chainId": "0x92"
      },
      "additionalContracts": [],
      "isFixedGasLimit": false
    }
  ],
  "receipts": [
    {
      "status": "0x1",
      "cumulativeGasUsed": "0x1f567",
      "logs": [
        {
          "address": "0xdd93c63ffc4b4a85daaec86a4752d616e03a3015",
          "topics": [
            "0xc975541e72d695746a43ba65745d79963a23082637c8f4609354d9bcf70194d6",
            "0x0000000000000000000000004a3723b6e427ecbd90f2848d6df9381a676a02b9"
          ],
          "data": "0x0000000000000000000000000000000000000000000000000000000000000004",
          "blockHash": "0xf6248a6dce9b5d0491c4bd36165168690965fd7aeb0ea9ed792e6cb042aa03eb",
          "blockNumber": "0x8b52a9",
          "transactionHash": "0x4b77ad3de467e20fb08f93cb9eac4296585f815bc6c95a813937edc7f72506cf",
          "transactionIndex": "0x0",
          "logIndex": "0x0",
          "removed": false
        }
      ],
      "logsBloom": "0x00000000000000002000000000000000000000000000000000000100000000000000000000000000000000000000000000000000000020000000000000000000000000000000000000000000000000000000000000000000000000000000000000100000000000000000000000000000000000000000000000000000000000000000000000000000000000000000000000000000000000000000000000000000000000000000000000000000000000000000000000000000000000000000800000000000000000000000000000000000000000000000000000000000000000000000000000000000001000000000000000000000000100000000000000001004",
      "type": "0x0",
      "transactionHash": "0x4b77ad3de467e20fb08f93cb9eac4296585f815bc6c95a813937edc7f72506cf",
      "transactionIndex": "0x0",
      "blockHash": "0xf6248a6dce9b5d0491c4bd36165168690965fd7aeb0ea9ed792e6cb042aa03eb",
      "blockNumber": "0x8b52a9",
      "gasUsed": "0x1f567",
      "effectiveGasPrice": "0xcce416600",
      "from": "0x4a3723b6e427ecbd90f2848d6df9381a676a02b9",
      "to": "0xdd93c63ffc4b4a85daaec86a4752d616e03a3015",
      "contractAddress": null
    },
    {
      "status": "0x1",
      "cumulativeGasUsed": "0x3eace",
      "logs": [
        {
          "address": "0xebcce8b534a35e93c7cf25f3fff2f8202f9f0655",
          "topics": [
            "0xc975541e72d695746a43ba65745d79963a23082637c8f4609354d9bcf70194d6",
            "0x0000000000000000000000004a3723b6e427ecbd90f2848d6df9381a676a02b9"
          ],
          "data": "0x0000000000000000000000000000000000000000000000000000000000000004",
          "blockHash": "0xf6248a6dce9b5d0491c4bd36165168690965fd7aeb0ea9ed792e6cb042aa03eb",
          "blockNumber": "0x8b52a9",
          "transactionHash": "0x1c32f3bfdbb33b07f2e9ce6f7eef9d16cf30d28f8ef1aba88bfa25fb836a4a91",
          "transactionIndex": "0x1",
          "logIndex": "0x1",
          "removed": false
        }
      ],
      "logsBloom": "0x00000000000000002000020000000000000000000000000000000100000000000000000000000000000000000000000000000000800020000000000000000000000000000000000000000000000000000000000000000000000000000000000000000000000000000000000000000000000000000000000000000000000000000000000000000000000000000000000000000000000000000000000000000000000000000000000000000000000000000000000000000000000000000000800000000000000000000000000000000000000000000000000000000000000000000000000000000000801000000000000000000000000100000000000000000000",
      "type": "0x0",
      "transactionHash": "0x1c32f3bfdbb33b07f2e9ce6f7eef9d16cf30d28f8ef1aba88bfa25fb836a4a91",
      "transactionIndex": "0x1",
      "blockHash": "0xf6248a6dce9b5d0491c4bd36165168690965fd7aeb0ea9ed792e6cb042aa03eb",
      "blockNumber": "0x8b52a9",
      "gasUsed": "0x1f567",
      "effectiveGasPrice": "0xcce416600",
      "from": "0x4a3723b6e427ecbd90f2848d6df9381a676a02b9",
      "to": "0xebcce8b534a35e93c7cf25f3fff2f8202f9f0655",
      "contractAddress": null
    },
    {
      "status": "0x1",
      "cumulativeGasUsed": "0x5e035",
      "logs": [
        {
          "address": "0x6ea10f2bd54520c5ea9a988f34a07b89a2c1b441",
          "topics": [
            "0xc975541e72d695746a43ba65745d79963a23082637c8f4609354d9bcf70194d6",
            "0x0000000000000000000000004a3723b6e427ecbd90f2848d6df9381a676a02b9"
          ],
          "data": "0x0000000000000000000000000000000000000000000000000000000000000004",
          "blockHash": "0xf6248a6dce9b5d0491c4bd36165168690965fd7aeb0ea9ed792e6cb042aa03eb",
          "blockNumber": "0x8b52a9",
          "transactionHash": "0x3464b21356fd060e6b65ecd4e643ae530c43b5bdaf9f7d5996e76881ca6f420e",
          "transactionIndex": "0x2",
          "logIndex": "0x2",
          "removed": false
        }
      ],
      "logsBloom": "0x00000000000000002000000008000000000001000000000000000100000000000000000000000000000000000000000000000000000020000000000000000040000000000000000000000000000000000000000000000000000000000000000000000000000000000000000000000000000000000000000000000000000000000000000000000000000000000000000000000000000000000000000000000000000000000000000000000000000000000000000000000000000000000000800000000000000000000000000000000000000000000000000000000000000000000000000000000000001000000000000000000000000100000000000000000000",
      "type": "0x0",
      "transactionHash": "0x3464b21356fd060e6b65ecd4e643ae530c43b5bdaf9f7d5996e76881ca6f420e",
      "transactionIndex": "0x2",
      "blockHash": "0xf6248a6dce9b5d0491c4bd36165168690965fd7aeb0ea9ed792e6cb042aa03eb",
      "blockNumber": "0x8b52a9",
      "gasUsed": "0x1f567",
      "effectiveGasPrice": "0xcce416600",
      "from": "0x4a3723b6e427ecbd90f2848d6df9381a676a02b9",
      "to": "0x6ea10f2bd54520c5ea9a988f34a07b89a2c1b441",
      "contractAddress": null
    },
    {
      "status": "0x1",
      "cumulativeGasUsed": "0x23be94",
      "logs": [
        {
          "address": "0x3987a13d675c66570bc28c955685a9bca2dcf26e",
          "topics": [
            "0xc975541e72d695746a43ba65745d79963a23082637c8f4609354d9bcf70194d6",
            "0x0000000000000000000000004a3723b6e427ecbd90f2848d6df9381a676a02b9"
          ],
          "data": "0x0000000000000000000000000000000000000000000000000000000000000004",
          "blockHash": "0x2ae2feb2733408b2e35248e0d3aa7097419b09159023b379883c8f78db784361",
          "blockNumber": "0x8b52ac",
          "transactionHash": "0x0f71b960b7f99b2818a17c3a9495991858486c50c6dc904fcd3532e75c47c7ee",
          "transactionIndex": "0x2",
          "logIndex": "0x96",
          "removed": false
        }
      ],
      "logsBloom": "0x00000000000000002000000000000000000000000000000000000100000000000000000000000000000000000000000000000000000020000000000000000000000000000000000000000000000000000000000000000000000000000000000000000000000000000000000000000000000000000000000000000000000000000000000000000000000000000000000000000000000000000000000000000000000000000000000000000000000000000000000000000000800000000080800040000000000000000000000000000000000000000000000000000000000000000000000000000000001000000000000000000000000100000000000000000000",
      "type": "0x0",
      "transactionHash": "0x0f71b960b7f99b2818a17c3a9495991858486c50c6dc904fcd3532e75c47c7ee",
      "transactionIndex": "0x2",
      "blockHash": "0x2ae2feb2733408b2e35248e0d3aa7097419b09159023b379883c8f78db784361",
      "blockNumber": "0x8b52ac",
      "gasUsed": "0x1f567",
      "effectiveGasPrice": "0xcce416600",
      "from": "0x4a3723b6e427ecbd90f2848d6df9381a676a02b9",
      "to": "0x3987a13d675c66570bc28c955685a9bca2dcf26e",
      "contractAddress": null
    },
    {
      "status": "0x1",
      "cumulativeGasUsed": "0x29e0ce",
      "logs": [
        {
          "address": "0x74717286ecb77bfad051e3db5ec6433f2a6a1b9b",
          "topics": [
            "0xc975541e72d695746a43ba65745d79963a23082637c8f4609354d9bcf70194d6",
            "0x0000000000000000000000004a3723b6e427ecbd90f2848d6df9381a676a02b9"
          ],
          "data": "0x0000000000000000000000000000000000000000000000000000000000000004",
          "blockHash": "0x2ae2feb2733408b2e35248e0d3aa7097419b09159023b379883c8f78db784361",
          "blockNumber": "0x8b52ac",
          "transactionHash": "0x900b0cd3edbef54f01d6fe4151fddb2d35bdda70fdd1ff784a7225dfc2e5b364",
          "transactionIndex": "0x4",
          "logIndex": "0x9b",
          "removed": false
        }
      ],
      "logsBloom": "0x00000000000000002000000000000000000000000000000000000100000000000000000000000000000000000000000000000000000020000000000000000000000000000000000000000000000000000800000000000000000000000000000000000000000000000000000000000000000000000000000000000000000000000000000000000000000000000000000000000000000000000000000000000000000004000000000000000000000000000000000000000000000000000000800000000000000000000000000000000000000000000000000000000000000000000000000000000000011000000000000000000000000100000000000000000000",
      "type": "0x0",
      "transactionHash": "0x900b0cd3edbef54f01d6fe4151fddb2d35bdda70fdd1ff784a7225dfc2e5b364",
      "transactionIndex": "0x4",
      "blockHash": "0x2ae2feb2733408b2e35248e0d3aa7097419b09159023b379883c8f78db784361",
      "blockNumber": "0x8b52ac",
      "gasUsed": "0x1f567",
      "effectiveGasPrice": "0xcce416600",
      "from": "0x4a3723b6e427ecbd90f2848d6df9381a676a02b9",
      "to": "0x74717286ecb77bfad051e3db5ec6433f2a6a1b9b",
      "contractAddress": null
    },
    {
      "status": "0x1",
      "cumulativeGasUsed": "0x2f8456",
      "logs": [
        {
          "address": "0x197d40b36677248e82939f96930bf4e7fe8ad1c2",
          "topics": [
            "0x0c948485f94e8de02a7b481333033de57f6a09532dd3e1c119a7f1a572a6643e"
          ],
          "data": "0x000000000000000000000000000000000000000000000000000000000000004000000000000000000000000000000000000000000000000000000000000000010000000000000000000000000000000000000000000000000000000000000005000000000000000000000000dd93c63ffc4b4a85daaec86a4752d616e03a3015000000000000000000000000ebcce8b534a35e93c7cf25f3fff2f8202f9f06550000000000000000000000006ea10f2bd54520c5ea9a988f34a07b89a2c1b4410000000000000000000000003987a13d675c66570bc28c955685a9bca2dcf26e00000000000000000000000074717286ecb77bfad051e3db5ec6433f2a6a1b9b",
          "blockHash": "0x2ae2feb2733408b2e35248e0d3aa7097419b09159023b379883c8f78db784361",
          "blockNumber": "0x8b52ac",
          "transactionHash": "0x49edb9367ce27d3bc277fd5ced0753c0c2ace033910e0faa95c0a13377391cfb",
          "transactionIndex": "0x6",
          "logIndex": "0x9f",
          "removed": false
        }
      ],
      "logsBloom": "0x00000000000000000000000000000000000000000000000000000000000000000000000000000000000000000000000000000000000000000000000000000000000000000000000000000000000000000000000000000000000000000000000000000000000000000000000000000000080400000000000000000000000000000000000000000000000000000000000000000000000000000020000000000000000000000000000000000000000000000000000000000000000000000000000000000000000000008000000000000000000020000000000000000000000000000000000000000000000000000000000000000080000000000000000000000000",
      "type": "0x0",
      "transactionHash": "0x49edb9367ce27d3bc277fd5ced0753c0c2ace033910e0faa95c0a13377391cfb",
      "transactionIndex": "0x6",
      "blockHash": "0x2ae2feb2733408b2e35248e0d3aa7097419b09159023b379883c8f78db784361",
      "blockNumber": "0x8b52ac",
      "gasUsed": "0x26115",
      "effectiveGasPrice": "0xcce416600",
      "from": "0x4a3723b6e427ecbd90f2848d6df9381a676a02b9",
      "to": "0x197d40b36677248e82939f96930bf4e7fe8ad1c2",
      "contractAddress": null
    }
  ],
  "libraries": [],
  "pending": [],
  "returns": {},
  "timestamp": 1740141703,
  "chain": 146,
  "commit": "2f85d24"
}