{
  "transactions": [
    {
      "hash": "0x72dce63bbb50817cb586dc8ff2b281110bbfaa1fafab74c09f3e3c1facf6bde4",
      "transactionType": "CALL",
      "contractName": null,
      "contractAddress": "0x56b404073c990e828691af936bcfff710f6c97a1",
      "function": "increaseOracleLength(uint16)",
      "arguments": [
        "4"
      ],
      "transaction": {
        "from": "0x4a3723b6e427ecbd90f2848d6df9381a676a02b9",
        "to": "0x56b404073c990e828691af936bcfff710f6c97a1",
        "gas": "0x2be6a",
        "value": "0x0",
        "input": "0xc7bd65860000000000000000000000000000000000000000000000000000000000000004",
        "nonce": "0x1be",
        "chainId": "0x92"
      },
      "additionalContracts": [],
      "isFixedGasLimit": false
    },
    {
      "hash": "0x42e0192f4fb39b429b428f79e41d1b1f78f6de3d6fa272c4fffe524370c88dc3",
      "transactionType": "CALL",
      "contractName": null,
      "contractAddress": "0x197d40b36677248e82939f96930bf4e7fe8ad1c2",
      "function": "setPairWhitelist(address[],bool)",
      "arguments": [
        "[0x56B404073C990E828691aF936bcfFf710f6c97A1]",
        "true"
      ],
      "transaction": {
        "from": "0x4a3723b6e427ecbd90f2848d6df9381a676a02b9",
        "to": "0x197d40b36677248e82939f96930bf4e7fe8ad1c2",
        "gas": "0x14401",
        "value": "0x0",
        "input": "0x05d3374100000000000000000000000000000000000000000000000000000000000000400000000000000000000000000000000000000000000000000000000000000001000000000000000000000000000000000000000000000000000000000000000100000000000000000000000056b404073c990e828691af936bcfff710f6c97a1",
        "nonce": "0x1bf",
        "chainId": "0x92"
      },
      "additionalContracts": [],
      "isFixedGasLimit": false
    }
  ],
  "receipts": [
    {
      "status": "0x1",
      "cumulativeGasUsed": "0x347dd",
      "logs": [
        {
          "address": "0x56b404073c990e828691af936bcfff710f6c97a1",
          "topics": [
            "0xc975541e72d695746a43ba65745d79963a23082637c8f4609354d9bcf70194d6",
            "0x0000000000000000000000004a3723b6e427ecbd90f2848d6df9381a676a02b9"
          ],
          "data": "0x0000000000000000000000000000000000000000000000000000000000000004",
          "blockHash": "0x097da669a356138a36993e8787ddc84f84409c43d1c65b2b4b65ad8b859d5e80",
          "blockNumber": "0x853570",
          "transactionHash": "0x72dce63bbb50817cb586dc8ff2b281110bbfaa1fafab74c09f3e3c1facf6bde4",
          "transactionIndex": "0x1",
          "logIndex": "0x0",
          "removed": false
        }
      ],
      "logsBloom": "0x00000000000000002000000000000000000000000000000000000100000000000000000000000000000000000000000000000000000021000000000000000000000000000000000000000000000000000000000000000000000000000000000000000000000000000000000000000000000000000000000000000000000000000000000000000000000000000000000000000000000000000000000000000000000000000000000000200000000000000000000000000000000000000000800000000000000000000000000000000000000000000000000000000000000000000000000000000000001000000000000200000000000100000000000000000000",
      "type": "0x0",
      "transactionHash": "0x72dce63bbb50817cb586dc8ff2b281110bbfaa1fafab74c09f3e3c1facf6bde4",
      "transactionIndex": "0x1",
      "blockHash": "0x097da669a356138a36993e8787ddc84f84409c43d1c65b2b4b65ad8b859d5e80",
      "blockNumber": "0x853570",
      "gasUsed": "0x1f567",
      "effectiveGasPrice": "0xcce416600",
      "from": "0x4a3723b6e427ecbd90f2848d6df9381a676a02b9",
      "to": "0x56b404073c990e828691af936bcfff710f6c97a1",
      "contractAddress": null
    },
    {
      "status": "0x1",
      "cumulativeGasUsed": "0x42fa7",
      "logs": [
        {
          "address": "0x197d40b36677248e82939f96930bf4e7fe8ad1c2",
          "topics": [
            "0x0c948485f94e8de02a7b481333033de57f6a09532dd3e1c119a7f1a572a6643e"
          ],
          "data": "0x00000000000000000000000000000000000000000000000000000000000000400000000000000000000000000000000000000000000000000000000000000001000000000000000000000000000000000000000000000000000000000000000100000000000000000000000056b404073c990e828691af936bcfff710f6c97a1",
          "blockHash": "0x097da669a356138a36993e8787ddc84f84409c43d1c65b2b4b65ad8b859d5e80",
          "blockNumber": "0x853570",
          "transactionHash": "0x42e0192f4fb39b429b428f79e41d1b1f78f6de3d6fa272c4fffe524370c88dc3",
          "transactionIndex": "0x2",
          "logIndex": "0x1",
          "removed": false
        }
      ],
      "logsBloom": "0x00000000000000000000000000000000000000000000000000000000000000000000000000000000000000000000000000000000000000000000000000000000000000000000000000000000000000000000000000000000000000000000000000000000000000000000000000000000080400000000000000000000000000000000000000000000000000000000000000000000000000000020000000000000000000000000000000000000000000000000000000000000000000000000000000000000000000008000000000000000000020000000000000000000000000000000000000000000000000000000000000000080000000000000000000000000",
      "type": "0x0",
      "transactionHash": "0x42e0192f4fb39b429b428f79e41d1b1f78f6de3d6fa272c4fffe524370c88dc3",
      "transactionIndex": "0x2",
      "blockHash": "0x097da669a356138a36993e8787ddc84f84409c43d1c65b2b4b65ad8b859d5e80",
      "blockNumber": "0x853570",
      "gasUsed": "0xe7ca",
      "effectiveGasPrice": "0xcce416600",
      "from": "0x4a3723b6e427ecbd90f2848d6df9381a676a02b9",
      "to": "0x197d40b36677248e82939f96930bf4e7fe8ad1c2",
      "contractAddress": null
    }
  ],
  "libraries": [],
  "pending": [],
  "returns": {},
  "timestamp": 1739996140,
  "chain": 146,
  "commit": "2f85d24"
}