{
  "transactions": [
    {
      "hash": "0x096bf4fad691bb910ce0a3775a94874838d015f7e9a4d3bceedd9908ed7b3fba",
      "transactionType": "CALL",
      "contractName": null,
      "contractAddress": "0x4541cda311ab72420743d03f8f45b42c858046dc",
      "function": "transferOwnership(address)",
      "arguments": [
        "0xd1f2823f3aBF4b8c7Ad1B6629421b2618a5e28aF"
      ],
      "transaction": {
        "from": "0x4a3723b6e427ecbd90f2848d6df9381a676a02b9",
        "to": "0x4541cda311ab72420743d03f8f45b42c858046dc",
        "gas": "0x9a3e",
        "value": "0x0",
        "input": "0xf2fde38b000000000000000000000000d1f2823f3abf4b8c7ad1b6629421b2618a5e28af",
        "nonce": "0x1f3",
        "chainId": "0x92"
      },
      "additionalContracts": [],
      "isFixedGasLimit": false
    },
    {
      "hash": "0x072a84cadd3c2c1c23828bfd340e82f507fb904d62c6dbe843c8bbb437c63e61",
      "transactionType": "CALL",
      "contractName": null,
      "contractAddress": "0x197d40b36677248e82939f96930bf4e7fe8ad1c2",
      "function": "transferOwnership(address)",
      "arguments": [
        "0xd1f2823f3aBF4b8c7Ad1B6629421b2618a5e28aF"
      ],
      "transaction": {
        "from": "0x4a3723b6e427ecbd90f2848d6df9381a676a02b9",
        "to": "0x197d40b36677248e82939f96930bf4e7fe8ad1c2",
        "gas": "0x1294b",
        "value": "0x0",
        "input": "0xf2fde38b000000000000000000000000d1f2823f3abf4b8c7ad1b6629421b2618a5e28af",
        "nonce": "0x1f4",
        "chainId": "0x92"
      },
      "additionalContracts": [],
      "isFixedGasLimit": false
    }
  ],
  "receipts": [
    {
      "status": "0x1",
      "cumulativeGasUsed": "0x8b85c",
      "logs": [
        {
          "address": "0x4541cda311ab72420743d03f8f45b42c858046dc",
          "topics": [
            "0x8be0079c531659141344cd1fd0a4f28419497f9722a3daafe3b4186f6b6457e0",
            "0x0000000000000000000000004a3723b6e427ecbd90f2848d6df9381a676a02b9",
            "0x000000000000000000000000d1f2823f3abf4b8c7ad1b6629421b2618a5e28af"
          ],
          "data": "0x",
          "blockHash": "0xedb8610c2a4d69d6481ccbc113a4a95fc52f466336172ff409f6ba57779086cd",
          "blockNumber": "0xadd576",
          "transactionHash": "0x096bf4fad691bb910ce0a3775a94874838d015f7e9a4d3bceedd9908ed7b3fba",
          "transactionIndex": "0x2",
          "logIndex": "0x8",
          "removed": false
        }
      ],
      "logsBloom": "0x00000000000000000000000000000000000000000000000000800000000000000000000000000000000000000000000000000000000020000000000000000000000000000000000000000000000000000001000000000000000000000000000000000000000000000000000020000000000000000000002000000000000000400000000000000000000000000000010000000000000000000000000000000000000000000000000000000000000000000000000000000400000000000000800000000000000000000000000002000000000000000000000000000000000000000000000000000000001000000000000000000010000000000000000000000000",
      "type": "0x0",
      "transactionHash": "0x096bf4fad691bb910ce0a3775a94874838d015f7e9a4d3bceedd9908ed7b3fba",
      "transactionIndex": "0x2",
      "blockHash": "0xedb8610c2a4d69d6481ccbc113a4a95fc52f466336172ff409f6ba57779086cd",
      "blockNumber": "0xadd576",
      "gasUsed": "0x73ed",
      "effectiveGasPrice": "0xcce416600",
      "from": "0x4a3723b6e427ecbd90f2848d6df9381a676a02b9",
      "to": "0x4541cda311ab72420743d03f8f45b42c858046dc",
      "contractAddress": null
    },
    {
      "status": "0x1",
      "cumulativeGasUsed": "0x997cd",
      "logs": [
        {
          "address": "0x197d40b36677248e82939f96930bf4e7fe8ad1c2",
          "topics": [
            "0x38d16b8cac22d99fc7c124b9cd0de2d3fa1faef420bfe791d8c362d765e22700",
            "0x0000000000000000000000004a3723b6e427ecbd90f2848d6df9381a676a02b9",
            "0x000000000000000000000000d1f2823f3abf4b8c7ad1b6629421b2618a5e28af"
          ],
          "data": "0x",
          "blockHash": "0xedb8610c2a4d69d6481ccbc113a4a95fc52f466336172ff409f6ba57779086cd",
          "blockNumber": "0xadd576",
          "transactionHash": "0x072a84cadd3c2c1c23828bfd340e82f507fb904d62c6dbe843c8bbb437c63e61",
          "transactionIndex": "0x3",
          "logIndex": "0x9",
          "removed": false
        }
      ],
      "logsBloom": "0x00000000000000000000000000000000000000000000000000000000000000000000000000000000000000000000000000000000000020000000000000000000000000000000000000000000000000000000000000000000000000000000000000000000000000000000000000000000000800000000002000000000000000000000000000000000000000000000000000000000000000000020000000000000000000000000020000000000000000000000000000000400000000000000800000002000000000008000000002000000000000000000000000000000000000000000000000000000001000000000000000000080000000000000000000000000",
      "type": "0x0",
      "transactionHash": "0x072a84cadd3c2c1c23828bfd340e82f507fb904d62c6dbe843c8bbb437c63e61",
      "transactionIndex": "0x3",
      "blockHash": "0xedb8610c2a4d69d6481ccbc113a4a95fc52f466336172ff409f6ba57779086cd",
      "blockNumber": "0xadd576",
      "gasUsed": "0xdf71",
      "effectiveGasPrice": "0xcce416600",
      "from": "0x4a3723b6e427ecbd90f2848d6df9381a676a02b9",
      "to": "0x197d40b36677248e82939f96930bf4e7fe8ad1c2",
      "contractAddress": null
    }
  ],
  "libraries": [],
  "pending": [],
  "returns": {},
  "timestamp": 1741004833,
  "chain": 146,
  "commit": "2f85d24"
}