{
  "transactions": [
    {
      "hash": "0x15cf3c5b2646e126afcfcb477fbab19aaeb060b0510b04b343a1261d562e09e7",
      "transactionType": "CALL",
      "contractName": null,
      "contractAddress": "0x3a26a5c3ca6303eb41e974b9bcdc8461b9f165bb",
      "function": "rebalance(uint24,uint24,uint24,uint24,uint256,uint256,bytes)",
      "arguments": [
        "0",
        "0",
        "0",
        "0",
        "0",
        "0",
        "0x"
      ],
      "transaction": {
        "from": "0x67b5a6779787350c49a02627cd7f7c321dfd593b",
        "to": "0x3a26a5c3ca6303eb41e974b9bcdc8461b9f165bb",
        "gas": "0xae1c9",
        "value": "0x0",
        "input": "0xe60d060300000000000000000000000000000000000000000000000000000000000000000000000000000000000000000000000000000000000000000000000000000000000000000000000000000000000000000000000000000000000000000000000000000000000000000000000000000000000000000000000000000000000000000000000000000000000000000000000000000000000000000000000000000000000000000000000000000000000000000000000000000000000000000000000000000000000000000000000000000000000000000000000000000000000000e00000000000000000000000000000000000000000000000000000000000000000",
        "nonce": "0x0",
        "chainId": "0x92"
      },
      "additionalContracts": [],
      "isFixedGasLimit": false
    }
  ],
  "receipts": [
    {
      "status": "0x1",
      "cumulativeGasUsed": "0x8177d",
      "logs": [
        {
          "address": "0x3a26a5c3ca6303eb41e974b9bcdc8461b9f165bb",
          "topics": [
            "0x0fa64089316a7879b6119aa6033906b96b944fd423d71b96b5f904a187b67d29"
          ],
          "data": "0x00000000000000000000000000000000000000000000000000000000000000000000000000000000000000000000000000000000000000000000000000000000",
          "blockHash": "0xe8e6128595515a91959aaa576a64e88bfa8a0dcd292b2e6af961077b01548bde",
          "blockNumber": "0xe091a8",
          "transactionHash": "0x15cf3c5b2646e126afcfcb477fbab19aaeb060b0510b04b343a1261d562e09e7",
          "transactionIndex": "0x0",
          "logIndex": "0x0",
          "removed": false
        },
        {
          "address": "0x71e99522ead5e21cf57f1f542dc4ad2e841f7321",
          "topics": [
            "0xddf252ad1be2c89b69c2b068fc378daa952ba7f163c4a11628f55a4df523b3ef",
            "0x0000000000000000000000001a5ded6adcfc64acede86151b1f142088c6e03da",
            "0x000000000000000000000000e3f132867fc5cbb95d21c53c00647e8e7cd6cf97"
          ],
          "data": "0x0000000000000000000000000000000000000000000000000000000000000000",
          "blockHash": "0xe8e6128595515a91959aaa576a64e88bfa8a0dcd292b2e6af961077b01548bde",
          "blockNumber": "0xe091a8",
          "transactionHash": "0x15cf3c5b2646e126afcfcb477fbab19aaeb060b0510b04b343a1261d562e09e7",
          "transactionIndex": "0x0",
          "logIndex": "0x1",
          "removed": false
        },
        {
          "address": "0x71e99522ead5e21cf57f1f542dc4ad2e841f7321",
          "topics": [
            "0xddf252ad1be2c89b69c2b068fc378daa952ba7f163c4a11628f55a4df523b3ef",
            "0x0000000000000000000000001a5ded6adcfc64acede86151b1f142088c6e03da",
            "0x000000000000000000000000f8b4bf5923103f0c69deedd96b967271fff03810"
          ],
          "data": "0x00000000000000000000000000000000000000000000000016853dad5daedf0d",
          "blockHash": "0xe8e6128595515a91959aaa576a64e88bfa8a0dcd292b2e6af961077b01548bde",
          "blockNumber": "0xe091a8",
          "transactionHash": "0x15cf3c5b2646e126afcfcb477fbab19aaeb060b0510b04b343a1261d562e09e7",
          "transactionIndex": "0x0",
          "logIndex": "0x2",
          "removed": false
        },
        {
          "address": "0x1a5ded6adcfc64acede86151b1f142088c6e03da",
          "topics": [
            "0x0e006e790dc8db480892a6d5c0bf539c411db278e5185b07d46bdcc110ba6af5",
            "0x0000000000000000000000000000000000000000000000000000000000000009",
            "0x000000000000000000000000f8b4bf5923103f0c69deedd96b967271fff03810"
          ],
          "data": "0x000000000000000000000000000000000000000000000000000000000000000000000000000000000000000000000000000000000000000016853dad5daedf0d",
          "blockHash": "0xe8e6128595515a91959aaa576a64e88bfa8a0dcd292b2e6af961077b01548bde",
          "blockNumber": "0xe091a8",
          "transactionHash": "0x15cf3c5b2646e126afcfcb477fbab19aaeb060b0510b04b343a1261d562e09e7",
          "transactionIndex": "0x0",
          "logIndex": "0x3",
          "removed": false
        },
        {
          "address": "0x56b404073c990e828691af936bcfff710f6c97a1",
          "topics": [
            "0x4a39dc06d4c0dbc64b70af90fd698a233a518aa5d07e595d983b8c0526c8f7fb",
            "0x0000000000000000000000003a26a5c3ca6303eb41e974b9bcdc8461b9f165bb",
            "0x0000000000000000000000003a26a5c3ca6303eb41e974b9bcdc8461b9f165bb",
            "0x0000000000000000000000000000000000000000000000000000000000000000"
          ],
          "data": "0x00000000000000000000000000000000000000000000000000000000000000400000000000000000000000000000000000000000000000000000000000000080000000000000000000000000000000000000000000000000000000000000000100000000000000000000000000000000000000000000000000000000007fc8ad0000000000000000000000000000000000000000000000000000000000000001000000000000000000000000000000000000000000000097efc2e150ca2cd6ee",
          "blockHash": "0xe8e6128595515a91959aaa576a64e88bfa8a0dcd292b2e6af961077b01548bde",
          "blockNumber": "0xe091a8",
          "transactionHash": "0x15cf3c5b2646e126afcfcb477fbab19aaeb060b0510b04b343a1261d562e09e7",
          "transactionIndex": "0x0",
          "logIndex": "0x4",
          "removed": false
        },
        {
          "address": "0x56b404073c990e828691af936bcfff710f6c97a1",
          "topics": [
            "0xa32e146844d6144a22e94c586715a1317d58a8aa3581ec33d040113ddcb24350",
            "0x0000000000000000000000003a26a5c3ca6303eb41e974b9bcdc8461b9f165bb",
            "0x0000000000000000000000003a26a5c3ca6303eb41e974b9bcdc8461b9f165bb"
          ],
          "data": "0x00000000000000000000000000000000000000000000000000000000000000400000000000000000000000000000000000000000000000000000000000000080000000000000000000000000000000000000000000000000000000000000000100000000000000000000000000000000000000000000000000000000007fc8ad0000000000000000000000000000000000000000000000000000000000000001000000000000000000000000000f424000000000000000000000000000000000",
          "blockHash": "0xe8e6128595515a91959aaa576a64e88bfa8a0dcd292b2e6af961077b01548bde",
          "blockNumber": "0xe091a8",
          "transactionHash": "0x15cf3c5b2646e126afcfcb477fbab19aaeb060b0510b04b343a1261d562e09e7",
          "transactionIndex": "0x0",
          "logIndex": "0x5",
          "removed": false
        },
        {
          "address": "0x29219dd400f2bf60e5a23d13be72b486d4038894",
          "topics": [
            "0xddf252ad1be2c89b69c2b068fc378daa952ba7f163c4a11628f55a4df523b3ef",
            "0x00000000000000000000000056b404073c990e828691af936bcfff710f6c97a1",
            "0x0000000000000000000000003a26a5c3ca6303eb41e974b9bcdc8461b9f165bb"
          ],
          "data": "0x00000000000000000000000000000000000000000000000000000000000f4240",
          "blockHash": "0xe8e6128595515a91959aaa576a64e88bfa8a0dcd292b2e6af961077b01548bde",
          "blockNumber": "0xe091a8",
          "transactionHash": "0x15cf3c5b2646e126afcfcb477fbab19aaeb060b0510b04b343a1261d562e09e7",
          "transactionIndex": "0x0",
          "logIndex": "0x6",
          "removed": false
        },
        {
          "address": "0x29219dd400f2bf60e5a23d13be72b486d4038894",
          "topics": [
            "0xddf252ad1be2c89b69c2b068fc378daa952ba7f163c4a11628f55a4df523b3ef",
            "0x0000000000000000000000003a26a5c3ca6303eb41e974b9bcdc8461b9f165bb",
            "0x00000000000000000000000086e4c00c5a7e7fb456d2a5f75fcb68998004bd87"
          ],
          "data": "0x0000000000000000000000000000000000000000000000000000000000000004",
          "blockHash": "0xe8e6128595515a91959aaa576a64e88bfa8a0dcd292b2e6af961077b01548bde",
          "blockNumber": "0xe091a8",
          "transactionHash": "0x15cf3c5b2646e126afcfcb477fbab19aaeb060b0510b04b343a1261d562e09e7",
          "transactionIndex": "0x0",
          "logIndex": "0x7",
          "removed": false
        },
        {
          "address": "0x3a26a5c3ca6303eb41e974b9bcdc8461b9f165bb",
          "topics": [
            "0xcc4d0ce3fb359c34f6da690da32e14d8729b5d9e5083ffaef1a594d6354e36c9",
            "0x00000000000000000000000067b5a6779787350c49a02627cd7f7c321dfd593b"
          ],
          "data": "0x000000000000000000000000000000000000000000000000000000000000000000000000000000000000000000000000000000000000000000000000000f424000000000000000000000000000000000000000000000000000000000000000000000000000000000000000000000000000000000000000000000000000000004",
          "blockHash": "0xe8e6128595515a91959aaa576a64e88bfa8a0dcd292b2e6af961077b01548bde",
          "blockNumber": "0xe091a8",
          "transactionHash": "0x15cf3c5b2646e126afcfcb477fbab19aaeb060b0510b04b343a1261d562e09e7",
          "transactionIndex": "0x0",
          "logIndex": "0x8",
          "removed": false
        },
        {
          "address": "0x1a5ded6adcfc64acede86151b1f142088c6e03da",
          "topics": [
            "0x0e006e790dc8db480892a6d5c0bf539c411db278e5185b07d46bdcc110ba6af5",
            "0x0000000000000000000000000000000000000000000000000000000000000009",
            "0x000000000000000000000000f8b4bf5923103f0c69deedd96b967271fff03810"
          ],
          "data": "0x00000000000000000000000000000000000000000000000000000000000000000000000000000000000000000000000000000000000000000000000000000000",
          "blockHash": "0xe8e6128595515a91959aaa576a64e88bfa8a0dcd292b2e6af961077b01548bde",
          "blockNumber": "0xe091a8",
          "transactionHash": "0x15cf3c5b2646e126afcfcb477fbab19aaeb060b0510b04b343a1261d562e09e7",
          "transactionIndex": "0x0",
          "logIndex": "0x9",
          "removed": false
        },
        {
          "address": "0xf8b4bf5923103f0c69deedd96b967271fff03810",
          "topics": [
            "0x47cee97cb7acd717b3c0aa1435d004cd5b3c8c57d70dbceb4e4458bbd60e39d4",
            "0x0000000000000000000000003a26a5c3ca6303eb41e974b9bcdc8461b9f165bb"
          ],
          "data": "0x00000000000000000000000000000000000000000000000015b538e29cb0818e",
          "blockHash": "0xe8e6128595515a91959aaa576a64e88bfa8a0dcd292b2e6af961077b01548bde",
          "blockNumber": "0xe091a8",
          "transactionHash": "0x15cf3c5b2646e126afcfcb477fbab19aaeb060b0510b04b343a1261d562e09e7",
          "transactionIndex": "0x0",
          "logIndex": "0xa",
          "removed": false
        },
        {
          "address": "0x3e819c0bba2cfaf24908bd8dfb444af19b55bc02",
          "topics": [
            "0x47cee97cb7acd717b3c0aa1435d004cd5b3c8c57d70dbceb4e4458bbd60e39d4",
            "0x0000000000000000000000003a26a5c3ca6303eb41e974b9bcdc8461b9f165bb"
          ],
          "data": "0x0000000000000000000000000000000000000000000000000557399a91227d81",
          "blockHash": "0xe8e6128595515a91959aaa576a64e88bfa8a0dcd292b2e6af961077b01548bde",
          "blockNumber": "0xe091a8",
          "transactionHash": "0x15cf3c5b2646e126afcfcb477fbab19aaeb060b0510b04b343a1261d562e09e7",
          "transactionIndex": "0x0",
          "logIndex": "0xb",
          "removed": false
        },
        {
          "address": "0x8a3b1cd8d0decf649262e56ece6b339e59f350db",
          "topics": [
            "0xddf252ad1be2c89b69c2b068fc378daa952ba7f163c4a11628f55a4df523b3ef",
            "0x0000000000000000000000003e819c0bba2cfaf24908bd8dfb444af19b55bc02",
            "0x0000000000000000000000003a26a5c3ca6303eb41e974b9bcdc8461b9f165bb"
          ],
          "data": "0x0000000000000000000000000000000000000000000000000557399a91227d81",
          "blockHash": "0xe8e6128595515a91959aaa576a64e88bfa8a0dcd292b2e6af961077b01548bde",
          "blockNumber": "0xe091a8",
          "transactionHash": "0x15cf3c5b2646e126afcfcb477fbab19aaeb060b0510b04b343a1261d562e09e7",
          "transactionIndex": "0x0",
          "logIndex": "0xc",
          "removed": false
        },
        {
          "address": "0x71e99522ead5e21cf57f1f542dc4ad2e841f7321",
          "topics": [
            "0xddf252ad1be2c89b69c2b068fc378daa952ba7f163c4a11628f55a4df523b3ef",
            "0x000000000000000000000000f8b4bf5923103f0c69deedd96b967271fff03810",
            "0x0000000000000000000000003a26a5c3ca6303eb41e974b9bcdc8461b9f165bb"
          ],
          "data": "0x00000000000000000000000000000000000000000000000015b538e29cb0818e",
          "blockHash": "0xe8e6128595515a91959aaa576a64e88bfa8a0dcd292b2e6af961077b01548bde",
          "blockNumber": "0xe091a8",
          "transactionHash": "0x15cf3c5b2646e126afcfcb477fbab19aaeb060b0510b04b343a1261d562e09e7",
          "transactionIndex": "0x0",
          "logIndex": "0xd",
          "removed": false
        },
        {
          "address": "0x71e99522ead5e21cf57f1f542dc4ad2e841f7321",
          "topics": [
            "0xddf252ad1be2c89b69c2b068fc378daa952ba7f163c4a11628f55a4df523b3ef",
            "0x0000000000000000000000003a26a5c3ca6303eb41e974b9bcdc8461b9f165bb",
            "0x000000000000000000000000f1e28e380ac635efac9f62d214828223154363f9"
          ],
          "data": "0x00000000000000000000000000000000000000000000000015b538e29cb0818e",
          "blockHash": "0xe8e6128595515a91959aaa576a64e88bfa8a0dcd292b2e6af961077b01548bde",
          "blockNumber": "0xe091a8",
          "transactionHash": "0x15cf3c5b2646e126afcfcb477fbab19aaeb060b0510b04b343a1261d562e09e7",
          "transactionIndex": "0x0",
          "logIndex": "0xe",
          "removed": false
        },
        {
          "address": "0x8a3b1cd8d0decf649262e56ece6b339e59f350db",
          "topics": [
            "0xddf252ad1be2c89b69c2b068fc378daa952ba7f163c4a11628f55a4df523b3ef",
            "0x0000000000000000000000003a26a5c3ca6303eb41e974b9bcdc8461b9f165bb",
            "0x000000000000000000000000f1e28e380ac635efac9f62d214828223154363f9"
          ],
          "data": "0x0000000000000000000000000000000000000000000000000557399a91227d81",
          "blockHash": "0xe8e6128595515a91959aaa576a64e88bfa8a0dcd292b2e6af961077b01548bde",
          "blockNumber": "0xe091a8",
          "transactionHash": "0x15cf3c5b2646e126afcfcb477fbab19aaeb060b0510b04b343a1261d562e09e7",
          "transactionIndex": "0x0",
          "logIndex": "0xf",
          "removed": false
        }
      ],
      "logsBloom": "0x01002220000000000001100000000040000000000000000000010000000000000001001000084040800100000000000110000010000001000100000000300000000100000000000000000008600000000008000000000010000000000000000000200000060004000000000000010800000000000810000000208010000010000000000000000000000000044000000000001100001000400000200000000000000000000000840000200000000000000000000200020010000100080001000000100002010000800000000000000080c00400000000001000000000001020001000010004002000000000000000000200900000080000000000000003800000",
      "type": "0x0",
      "transactionHash": "0x15cf3c5b2646e126afcfcb477fbab19aaeb060b0510b04b343a1261d562e09e7",
      "transactionIndex": "0x0",
      "blockHash": "0xe8e6128595515a91959aaa576a64e88bfa8a0dcd292b2e6af961077b01548bde",
      "blockNumber": "0xe091a8",
      "gasUsed": "0x8177d",
      "effectiveGasPrice": "0xcce416600",
      "from": "0x67b5a6779787350c49a02627cd7f7c321dfd593b",
      "to": "0x3a26a5c3ca6303eb41e974b9bcdc8461b9f165bb",
      "contractAddress": null
    }
  ],
  "libraries": [],
  "pending": [],
  "returns": {},
  "timestamp": 1742422962,
  "chain": 146,
  "commit": "d584e91"
}