{
  "transactions": [
    {
      "hash": "0x79b2d26c669fe8741c89dca2661cbc041acc05a2bf4211cc233e971dadf10516",
      "transactionType": "CALL",
      "contractName": null,
      "contractAddress": "0x5015643b8db50a1cb779a3e134176237d14ca67a",
      "function": "increaseOracleLength(uint16)",
      "arguments": [
        "4"
      ],
      "transaction": {
        "from": "0x4a3723b6e427ecbd90f2848d6df9381a676a02b9",
        "to": "0x5015643b8db50a1cb779a3e134176237d14ca67a",
        "gas": "0x2be6a",
        "value": "0x0",
        "input": "0xc7bd65860000000000000000000000000000000000000000000000000000000000000004",
        "nonce": "0x1ba",
        "chainId": "0x92"
      },
      "additionalContracts": [],
      "isFixedGasLimit": false
    },
    {
      "hash": "0xb21ec792c3b5f63c2bd9abc09d213e5723c2683f57f9f7d59407df9e1b071e5d",
      "transactionType": "CALL",
      "contractName": null,
      "contractAddress": "0x197d40b36677248e82939f96930bf4e7fe8ad1c2",
      "function": "setPairWhitelist(address[],bool)",
      "arguments": [
        "[0x5015643B8dB50A1cB779A3e134176237d14ca67a]",
        "true"
      ],
      "transaction": {
        "from": "0x4a3723b6e427ecbd90f2848d6df9381a676a02b9",
        "to": "0x197d40b36677248e82939f96930bf4e7fe8ad1c2",
        "gas": "0x14401",
        "value": "0x0",
        "input": "0x05d337410000000000000000000000000000000000000000000000000000000000000040000000000000000000000000000000000000000000000000000000000000000100000000000000000000000000000000000000000000000000000000000000010000000000000000000000005015643b8db50a1cb779a3e134176237d14ca67a",
        "nonce": "0x1bb",
        "chainId": "0x92"
      },
      "additionalContracts": [],
      "isFixedGasLimit": false
    }
  ],
  "receipts": [
    {
      "status": "0x1",
      "cumulativeGasUsed": "0x1f567",
      "logs": [
        {
          "address": "0x5015643b8db50a1cb779a3e134176237d14ca67a",
          "topics": [
            "0xc975541e72d695746a43ba65745d79963a23082637c8f4609354d9bcf70194d6",
            "0x0000000000000000000000004a3723b6e427ecbd90f2848d6df9381a676a02b9"
          ],
          "data": "0x0000000000000000000000000000000000000000000000000000000000000004",
          "blockHash": "0x8ff63654823cd7c238dfca6d4767e8dbe227380f6ce1cbf984cbbd89f7641c07",
          "blockNumber": "0x8530be",
          "transactionHash": "0x79b2d26c669fe8741c89dca2661cbc041acc05a2bf4211cc233e971dadf10516",
          "transactionIndex": "0x0",
          "logIndex": "0x0",
          "removed": false
        }
      ],
      "logsBloom": "0x00000000000000002000000000000000000000000000000000000100000000000000000000000000100000000000000000000000000020000000000000000000000000000000000000000000000000000000000000000000000000000000000000000000000000000000000000000000000000000000000000000000000000000000000000000000000000000000000000000000000000000000000000000000000000000000000000000000000000000000000000000000000000000000800000000000000000000000000000000000000000000000000000000000000001000400000000000000001000000000000000000000000100000000000000000000",
      "type": "0x0",
      "transactionHash": "0x79b2d26c669fe8741c89dca2661cbc041acc05a2bf4211cc233e971dadf10516",
      "transactionIndex": "0x0",
      "blockHash": "0x8ff63654823cd7c238dfca6d4767e8dbe227380f6ce1cbf984cbbd89f7641c07",
      "blockNumber": "0x8530be",
      "gasUsed": "0x1f567",
      "effectiveGasPrice": "0xcce416600",
      "from": "0x4a3723b6e427ecbd90f2848d6df9381a676a02b9",
      "to": "0x5015643b8db50a1cb779a3e134176237d14ca67a",
      "contractAddress": null
    },
    {
      "status": "0x1",
      "cumulativeGasUsed": "0x19204b",
      "logs": [
        {
          "address": "0x197d40b36677248e82939f96930bf4e7fe8ad1c2",
          "topics": [
            "0x0c948485f94e8de02a7b481333033de57f6a09532dd3e1c119a7f1a572a6643e"
          ],
          "data": "0x0000000000000000000000000000000000000000000000000000000000000040000000000000000000000000000000000000000000000000000000000000000100000000000000000000000000000000000000000000000000000000000000010000000000000000000000005015643b8db50a1cb779a3e134176237d14ca67a",
          "blockHash": "0x8ff63654823cd7c238dfca6d4767e8dbe227380f6ce1cbf984cbbd89f7641c07",
          "blockNumber": "0x8530be",
          "transactionHash": "0xb21ec792c3b5f63c2bd9abc09d213e5723c2683f57f9f7d59407df9e1b071e5d",
          "transactionIndex": "0x4",
          "logIndex": "0x13",
          "removed": false
        }
      ],
      "logsBloom": "0x00000000000000000000000000000000000000000000000000000000000000000000000000000000000000000000000000000000000000000000000000000000000000000000000000000000000000000000000000000000000000000000000000000000000000000000000000000000080400000000000000000000000000000000000000000000000000000000000000000000000000000020000000000000000000000000000000000000000000000000000000000000000000000000000000000000000000008000000000000000000020000000000000000000000000000000000000000000000000000000000000000080000000000000000000000000",
      "type": "0x0",
      "transactionHash": "0xb21ec792c3b5f63c2bd9abc09d213e5723c2683f57f9f7d59407df9e1b071e5d",
      "transactionIndex": "0x4",
      "blockHash": "0x8ff63654823cd7c238dfca6d4767e8dbe227380f6ce1cbf984cbbd89f7641c07",
      "blockNumber": "0x8530be",
      "gasUsed": "0xe7ca",
      "effectiveGasPrice": "0xcce416600",
      "from": "0x4a3723b6e427ecbd90f2848d6df9381a676a02b9",
      "to": "0x197d40b36677248e82939f96930bf4e7fe8ad1c2",
      "contractAddress": null
    }
  ],
  "libraries": [],
  "pending": [],
  "returns": {},
  "timestamp": 1739995696,
  "chain": 146,
  "commit": "c202239"
}