{
  "transactions": [
    {
      "hash": "0x0c08a50ab7fcea7dcf06a1980f1b97dbae9bfe2b7af9f256a0c312d75ae56874",
      "transactionType": "CALL",
      "contractName": null,
      "contractAddress": "0x18536f666624c3fb1c1266fe015c6e7828a09228",
      "function": "increaseOracleLength(uint16)",
      "arguments": [
        "4"
      ],
      "transaction": {
        "from": "0x4a3723b6e427ecbd90f2848d6df9381a676a02b9",
        "to": "0x18536f666624c3fb1c1266fe015c6e7828a09228",
        "gas": "0x2be6a",
        "value": "0x0",
        "input": "0xc7bd65860000000000000000000000000000000000000000000000000000000000000004",
        "nonce": "0x1bc",
        "chainId": "0x92"
      },
      "additionalContracts": [],
      "isFixedGasLimit": false
    },
    {
      "hash": "0x1fc8a2282c17ecd22401c9619d789044638240a7afe3f5ac4dfa0c5e845d85c5",
      "transactionType": "CALL",
      "contractName": null,
      "contractAddress": "0x197d40b36677248e82939f96930bf4e7fe8ad1c2",
      "function": "setPairWhitelist(address[],bool)",
      "arguments": [
        "[0x18536F666624C3Fb1C1266FE015C6e7828A09228]",
        "true"
      ],
      "transaction": {
        "from": "0x4a3723b6e427ecbd90f2848d6df9381a676a02b9",
        "to": "0x197d40b36677248e82939f96930bf4e7fe8ad1c2",
        "gas": "0x14401",
        "value": "0x0",
        "input": "0x05d3374100000000000000000000000000000000000000000000000000000000000000400000000000000000000000000000000000000000000000000000000000000001000000000000000000000000000000000000000000000000000000000000000100000000000000000000000018536f666624c3fb1c1266fe015c6e7828a09228",
        "nonce": "0x1bd",
        "chainId": "0x92"
      },
      "additionalContracts": [],
      "isFixedGasLimit": false
    }
  ],
  "receipts": [
    {
      "status": "0x1",
      "cumulativeGasUsed": "0x2476f",
      "logs": [
        {
          "address": "0x18536f666624c3fb1c1266fe015c6e7828a09228",
          "topics": [
            "0xc975541e72d695746a43ba65745d79963a23082637c8f4609354d9bcf70194d6",
            "0x0000000000000000000000004a3723b6e427ecbd90f2848d6df9381a676a02b9"
          ],
          "data": "0x0000000000000000000000000000000000000000000000000000000000000004",
          "blockHash": "0x4d19faacc949a2cfa87bbcb48bd23eaac0560220c115cffff81b713c1c50d128",
          "blockNumber": "0x853485",
          "transactionHash": "0x0c08a50ab7fcea7dcf06a1980f1b97dbae9bfe2b7af9f256a0c312d75ae56874",
          "transactionIndex": "0x1",
          "logIndex": "0x0",
          "removed": false
        }
      ],
      "logsBloom": "0x00000000000000002000000000000000000000004000000000000100000000000000000000000000000000000000000000000000000020000000000000000000000000020000000000000010000000000000000000000000000000000000000000000000000000000000000000000000000000000000000000000000000000000000000000000000000000000000000000000000000000000000000000000000000000000000000000000000000000000000000000000000000000000000800000000000000000000000000000000000000000000000000000000000000000000000000000000000001000000000000000000000000100000000000000000000",
      "type": "0x0",
      "transactionHash": "0x0c08a50ab7fcea7dcf06a1980f1b97dbae9bfe2b7af9f256a0c312d75ae56874",
      "transactionIndex": "0x1",
      "blockHash": "0x4d19faacc949a2cfa87bbcb48bd23eaac0560220c115cffff81b713c1c50d128",
      "blockNumber": "0x853485",
      "gasUsed": "0x1f567",
      "effectiveGasPrice": "0xcce416600",
      "from": "0x4a3723b6e427ecbd90f2848d6df9381a676a02b9",
      "to": "0x18536f666624c3fb1c1266fe015c6e7828a09228",
      "contractAddress": null
    },
    {
      "status": "0x1",
      "cumulativeGasUsed": "0x32f39",
      "logs": [
        {
          "address": "0x197d40b36677248e82939f96930bf4e7fe8ad1c2",
          "topics": [
            "0x0c948485f94e8de02a7b481333033de57f6a09532dd3e1c119a7f1a572a6643e"
          ],
          "data": "0x00000000000000000000000000000000000000000000000000000000000000400000000000000000000000000000000000000000000000000000000000000001000000000000000000000000000000000000000000000000000000000000000100000000000000000000000018536f666624c3fb1c1266fe015c6e7828a09228",
          "blockHash": "0x4d19faacc949a2cfa87bbcb48bd23eaac0560220c115cffff81b713c1c50d128",
          "blockNumber": "0x853485",
          "transactionHash": "0x1fc8a2282c17ecd22401c9619d789044638240a7afe3f5ac4dfa0c5e845d85c5",
          "transactionIndex": "0x2",
          "logIndex": "0x1",
          "removed": false
        }
      ],
      "logsBloom": "0x00000000000000000000000000000000000000000000000000000000000000000000000000000000000000000000000000000000000000000000000000000000000000000000000000000000000000000000000000000000000000000000000000000000000000000000000000000000080400000000000000000000000000000000000000000000000000000000000000000000000000000020000000000000000000000000000000000000000000000000000000000000000000000000000000000000000000008000000000000000000020000000000000000000000000000000000000000000000000000000000000000080000000000000000000000000",
      "type": "0x0",
      "transactionHash": "0x1fc8a2282c17ecd22401c9619d789044638240a7afe3f5ac4dfa0c5e845d85c5",
      "transactionIndex": "0x2",
      "blockHash": "0x4d19faacc949a2cfa87bbcb48bd23eaac0560220c115cffff81b713c1c50d128",
      "blockNumber": "0x853485",
      "gasUsed": "0xe7ca",
      "effectiveGasPrice": "0xcce416600",
      "from": "0x4a3723b6e427ecbd90f2848d6df9381a676a02b9",
      "to": "0x197d40b36677248e82939f96930bf4e7fe8ad1c2",
      "contractAddress": null
    }
  ],
  "libraries": [],
  "pending": [],
  "returns": {},
  "timestamp": 1739996050,
  "chain": 146,
  "commit": "2f85d24"
}