{
  "transactions": [
    {
      "hash": "0x8047fe280159239436b1f480e7aef2ad61551b4c465cc84e4ffcc588984f1b54",
      "transactionType": "CALL",
      "contractName": null,
      "contractAddress": "0xfc7f189acef2dd11e3bcb32c43807a5c15ec4ff2",
      "function": "setEmergencyMode(address)",
      "arguments": [
        "0x3685f42E3A38c78e0868c4a9Ab97559d76E376C0"
      ],
      "transaction": {
        "from": "0x7f76d5b3a33a87061b5184ae9bd301d6b7333185",
        "to": "0xfc7f189acef2dd11e3bcb32c43807a5c15ec4ff2",
        "gas": "0x2c698",
        "value": "0x0",
        "input": "0x2acff1150000000000000000000000003685f42e3a38c78e0868c4a9ab97559d76e376c0",
        "nonce": "0x25",
        "chainId": "0x433"
      },
      "additionalContracts": [],
      "isFixedGasLimit": false
    }
  ],
  "receipts": [
    {
      "status": "0x1",
      "cumulativeGasUsed": "0x14235",
      "logs": [
        {
          "address": "0x408ba8dea8b514cc24f81e72795fc3ddbca8dbb5",
          "topics": [
            "0xddf252ad1be2c89b69c2b068fc378daa952ba7f163c4a11628f55a4df523b3ef",
            "0x000000000000000000000000033d4778ef29933a70bcf74c06952ba5a70e816e",
            "0x0000000000000000000000003685f42e3a38c78e0868c4a9ab97559d76e376c0"
          ],
          "data": "0x000000000000000000000000000000000000000000000001158e460913d00000",
          "blockHash": "0x6007645bc689fc67ff6ddda669c34b51c7196f402850554a10240db19064e4da",
          "blockNumber": "0x66b11",
          "transactionHash": "0x8047fe280159239436b1f480e7aef2ad61551b4c465cc84e4ffcc588984f1b54",
          "transactionIndex": "0x0",
          "logIndex": "0x0",
          "removed": false
        },
        {
          "address": "0xb2e0dfc4820cc55829c71529598530e177968613",
          "topics": [
            "0xddf252ad1be2c89b69c2b068fc378daa952ba7f163c4a11628f55a4df523b3ef",
            "0x000000000000000000000000033d4778ef29933a70bcf74c06952ba5a70e816e",
            "0x0000000000000000000000003685f42e3a38c78e0868c4a9ab97559d76e376c0"
          ],
          "data": "0x0000000000000000000000000000000000000000000000056bc75e2d63100000",
          "blockHash": "0x6007645bc689fc67ff6ddda669c34b51c7196f402850554a10240db19064e4da",
          "blockNumber": "0x66b11",
          "transactionHash": "0x8047fe280159239436b1f480e7aef2ad61551b4c465cc84e4ffcc588984f1b54",
          "transactionIndex": "0x0",
          "logIndex": "0x1",
          "removed": false
        },
        {
          "address": "0x3685f42e3a38c78e0868c4a9ab97559d76e376c0",
          "topics": [
            "0xe70d79dad95c835bdd87e9cf4665651c9e5abb3b756e4fd2bf45f29c95c3aa40"
          ],
          "data": "0x0000000000000000000000000000000000000000000000000000000000000000",
          "blockHash": "0x6007645bc689fc67ff6ddda669c34b51c7196f402850554a10240db19064e4da",
          "blockNumber": "0x66b11",
          "transactionHash": "0x8047fe280159239436b1f480e7aef2ad61551b4c465cc84e4ffcc588984f1b54",
          "transactionIndex": "0x0",
          "logIndex": "0x2",
          "removed": false
        },
        {
          "address": "0x3685f42e3a38c78e0868c4a9ab97559d76e376c0",
          "topics": [
            "0x185079b91d6fc95ee30b386eaca3291e9bc2783621ef973a33d1450c41b6acf7"
          ],
          "data": "0x",
          "blockHash": "0x6007645bc689fc67ff6ddda669c34b51c7196f402850554a10240db19064e4da",
          "blockNumber": "0x66b11",
          "transactionHash": "0x8047fe280159239436b1f480e7aef2ad61551b4c465cc84e4ffcc588984f1b54",
          "transactionIndex": "0x0",
          "logIndex": "0x3",
          "removed": false
        }
      ],
      "logsBloom": "0x00000800000040000000000000000000000002000000000000000080000000000800000000000000802000100000000000000080000000000000000000000000000000000000000800000008000000000000000000000020000000000000000000010000000000400080000000000001000000000000800000000010000000000000000000000000000000000000000000000000000000000000000000000000000000000000000000000000004000000000000000000000000000000000000000000002000000000000000000400000000000000000000000000000000000000000000000000000000000000000000000400000000010020000000000000000",
      "type": "0x0",
      "transactionHash": "0x8047fe280159239436b1f480e7aef2ad61551b4c465cc84e4ffcc588984f1b54",
      "transactionIndex": "0x0",
      "blockHash": "0x6007645bc689fc67ff6ddda669c34b51c7196f402850554a10240db19064e4da",
      "blockNumber": "0x66b11",
      "gasUsed": "0x14235",
      "effectiveGasPrice": "0x2540be400",
      "from": "0x7f76d5b3a33a87061b5184ae9bd301d6b7333185",
      "to": "0xfc7f189acef2dd11e3bcb32c43807a5c15ec4ff2",
      "contractAddress": "0x0000000000000000000000000000000000000000"
    }
  ],
  "libraries": [],
  "pending": [],
  "returns": {},
  "timestamp": 1728763128,
  "chain": 1075,
  "commit": "fa001f4"
}